:060000000A128A11ED2F27
:100D6A00831203138C1EB52E1A080800F000831292
:100D7A0003130C1EBC2E7008990008007E088A0016
:100D8A007F088200C3260A128A118000840A040896
:100D9A007D0603190034FF0A0319FE0AC72E203400
:100DAA002034203420342034203420342034203499
:100DBA0020342034203420342034203420340034A9
:100DCA00F0007008803A1B3E031CF02E6430831238
:100DDA0003139B000800F01FF62E831203139B01D6
:100DEA0008007008831203139B0008008312031380
:100DFA000F08F7000E08F60077080A128A11BB26B8
:100E0A000A128A1176080A128A11BB2676088312F8
:100E1A0003138E027708031C8F038F020800F10167
:100E2A00F2017208803AFF0080307F02031D1F2FF3
:100E3A006430710203180800831203138516C73041
:100E4A00F000272FF00B262F2A2F2B2F83120313A4
:100E5A008512A630F000F00B302F00000130F107A8
:100E6A000318F20A0030F207162F03308312031315
:100E7A0090000F30970095010F309D009B01643060
:100E8A00831603139200043083120313920007306F
:100E9A00831603139F00FD308700DF3085009030F2
:100EAA0083120313980024308316031398000C301E
:100EBA0099000A128A1114270A128A118230F40040
:100ECA00DD30F300F30B672FF40B672F6C2F0A1238
:100EDA008A1114270A128A118230F400DD30F300D5
:100EEA00F30B752FF40B752F7A2F0A128A11142718
:100EFA000A128A118230F400DD30F300F30B832FDB
:100F0A00F40B832F882FD42F0A128A11FB260A1278
:100F1A008A11D32F8312031321080A128A11E52694
:100F2A000A128A11D32F8312031321080A128A1173
:100F3A00E5260A128A110A128A11FB260A128A1156
:100F4A00D32F00300A128A11E5260A128A110A12D0
:100F5A008A1114270A128A110A128A1114270A12EC
:100F6A008A11D32F831203132008313A0319982FB9
:100F7A00033A0319A62F073A03198F2F023A0319C6
:100F8A00892F453A0319892F013A0319A62F043AE2
:100F9A0003198F2F0F3A0319982FD32FF8010A122A
:100FAA008A11B5260A128A11F3007308F5000A306D
:100FBA0075060319B72F7508F3007808203E8400D8
:100FCA007308831380000130F3007308F807D42FE5
:100FDA0083133130FD000630FE00D430FF0020308C
:100FEA0084000A128A11C726F601F701F801830163
:060FFA000A128A113A2FD1
:02400E003A3F37
:00000001FF
