:060000000A128A11122809
:10000800FE00030EF1000408F2000A08F300831250
:1000180003137F08F4000A128A11C0290A128A11F0
:10002800152883133130FD000230FE001230FF0026
:10003800203084000A128A112722BC01BD01BE01AA
:10004800BF01C001F60183010A128A112B288330EF
:1000580083160313810080308B000330831203134F
:1000680090000F30970095010F309D009B01643080
:100078008316031392000430831203139200053091
:10008800831603139F00FD308700FF308600DF30A2
:1000980085009030831203139800243083160313CD
:1000A80098000C30990083120313861CF528003041
:1000B8000A128A1168210A128A11823083120313E4
:1000C800B700DD30B600B60B6728B70B67280030DD
:1000D8000A128A1168210A128A11823083120313C4
:1000E800B700DD30B600B60B7728B70B772800309D
:1000F8000A128A1168210A128A11823083120313A4
:10010800B700DD30B600B60B8728B70B8728DA288A
:100118000A128A11E1210A128A11D72883120313BD
:1001280021080A128A11FC210A128A11D72883127F
:10013800031321080A128A11FC210A128A110A12D1
:100148008A11E1210A128A11D72800300A128A116D
:10015800FC210A128A11153083120313B8004B30A0
:10016800B700BD30B600B60BB728B70BB728B80B29
:10017800B728BE2800300A128A1168210A128A118B
:10018800831203138E018F01D7282008313A0319EF
:100198009B28033A0319A928073A03199228023A17
:1001A80003198C28D72883120313C0010A128A1155
:1001B8003C220A128A1183120313B6003608B900CA
:1001C8000A3039060319C9283908B6004008203E04
:1001D80084003608831380000130B6003608C00753
:1001E800DA2800300A128A1168210A128A1182302C
:1001F80083120313B700DD30B600B60B0129B70B25
:10020800012901300A128A1168210A128A118230E2
:1002180083120313B700DD30B600B60B1129B70BF4
:10022800112932293A08B6003608BE003C080A12DD
:100238008A1134220A128A11831203133D080A1202
:100248008A1134220A128A1132293A08B60036086D
:10025800BF008E018F01101481018B160A128A11BA
:100268003C220A128A1183120313B6003608BB0017
:100278000A128A113C220A128A1183120313B60049
:100288003608BA0078303B060319162974308312F1
:1002980003133B06031929297330831203133B0602
:1002A800031D3229FE30B60036089005DF30B6004F
:1002B80036088B059B01BC01BD0100300A128A116A
:1002C80068210A128A11322983120313B1003108F6
:1002D800031D9629B201B3013308803AFF0080302C
:1002E8007F02031D79296430320203180800831243
:1002F80003138516C730F5008129F50B8029842959
:100308008529831203138512A630F500F50B8A2977
:100318000000013083120313B2070318B30A003038
:10032800B307702983120313B401B5013508803A65
:10033800FF0081307F02031DA329F4303402031823
:100348000800831203138516C730F500AB29F50B97
:10035800AA29AE29AF29831203138512A630F50006
:10036800F50BB4290000013083120313B4070318F6
:10037800B50A0030B5079A290130F0007008F60771
:1003880076083F020318D529F6010F08BD000E08AC
:10039800BC003E089B003C088E023D08031C8F03EE
:1003A8008F020B117408FF0073088A00720884001A
:1003B800710E8300FE0E7E0E0900831203130F08D0
:1003C800BD000E08BC003D080A128A1134220A1228
:1003D8008A11831203133C080A128A1134228312E9
:1003E80003133C088E023D08031C8F038F0208008C
:1003F800F5007508803A1B3E031C072A64308312F7
:1004080003139B000800F51F0D2A831203139B0199
:1004180008007508831203139B0008002034203459
:100428002034203420342034203420342034203424
:1004380020342034203420342034203400347E0802
:100448008A007F08820023220A128A118000840A07
:1004580004087D0603190034FF0A0319FE0A272A37
:10046800F500831203130C1E352A7508990008003D
:0C047800831203138C1E3C2A1A08080093
:02400E003A3F37
:00000001FF
