:060000000A128A11122809
:10000800FE00030EF0000408F1000A08F200831253
:1000180003137F08F3000A128A116F2F0A128A113C
:1000280015280A128A119B270A128A11D4000A126B
:100038008A119C270A128A11D5000A128A119D2753
:100048000A128A11D6000A128A119E27D700830144
:100058000A128A119E2D83120313BC002F30B1009F
:100068003108B600013083120313BC07FF303C0788
:1000780084000A128A114C250A128A11B10031082B
:10008800BF003F080319080025303F06031953280D
:100098003F080A128A110D240A128A11362883127F
:1000A8000313BD01BE01B9013C0884000A128A117C
:1000B8004C250A128A110A128A1181270A128A11FA
:1000C800031CF32883120313BD01BE010A30F40098
:1000D8000030F500831203133E08F7003D08F600D0
:1000E8000A128A1148270A128A1175088312031303
:1000F800BE007408BD003C0884000A128A114C2511
:100108000A128A11D03EB100FF3003180030B20045
:100118003108BD070318BE0A3208BE070130B10016
:100128003108BC073C0884000A128A114C250A12BF
:100138008A110A128A1181270A128A11031CF328CC
:100148006A28831203133E083802031DAD283D08B0
:1001580037020318B6283708BD023808031CBE0347
:10016800BE02B828BD01BE01FF3083120313BD07CC
:100178000318BE0AFF30BE073D0A03193E0A0319D9
:10018800DB2820300A128A110D240A128A11B82895
:1001980034088400831300080A128A110D240A12F5
:1001A8008A11013083120313B1003108B4070130FA
:1001B800B7020030031CB803B802370A031DCC2865
:1001C800380A03193628CC283F30B1003108B4006A
:1001D8000130B7000030B800A52839170D290130C3
:1001E80083120313BC07FF303C0784000A128A11EC
:1001F8004C250A128A11BF00003A0319F329643A00
:1002080003190D290D3A03190D291C3A0319F12870
:10021800E82883120313391B29293608840083131D
:100228000008BA00840A0008BB000230B100310897
:10023800B607BB1F35290330B1003108B904BA0924
:10024800BB09BA0A0319BB0A352936088400831387
:100258000008BA00840A0008BB000230B100310867
:10026800B607BF01BF0A05303F0603195C293F08DE
:10027800B1003107013E84000A128A114C250A1286
:100288008A11B2000A128A114C250A128A11B30087
:1002980033083B02031D522932083A02031C5C2929
:1002A8000130B1003108BF0705303F06031D3B2967
:1002B8003D083E0403196A293908033903196A29D4
:1002C800FF30BD070318BE0AFF30BE073F08B10064
:1002D800B201B11BB2033208803AB3003E08803A3B
:1002E8003302031D79293D08310203188929831235
:1002F80003133F08B100B201B11BB2033108BD02BC
:100308003208031CBE03BE028D2983120313BD01EC
:10031800BE013D083E040319A32920300A128A11A0
:100328000D240A128A11FF3083120313BD07031824
:10033800BE0AFF30BE073D083E04031D9129390857
:1003480003390319AD292D300A128A110D240A1216
:100358008A11831203133F08B1003108B500FF303A
:1003680083120313B1003108B507350A031936287B
:100378000A30A9000030AA003508B1003107013E53
:1003880084000A128A114C250A128A11A2000A1244
:100398008A114C250A128A11A3003B08A5003A08C5
:1003A800A4000A128A11EF250A128A118312031374
:1003B8002308AC002208AB000A128A1167260A1229
:1003C8008A11831203132908303EB2003208BF0095
:1003D8003F080A128A110D240A128A11B32908004B
:1003E800791483120313891030300A128A11812478
:1003F8000A128A11003083120313A3000030A200EE
:100408000030A100C830A0000F3084000A128A1101
:100418004C250A128A11A4000A128A114C250A12C4
:100428008A11A5000A128A114C250A128A11A600FF
:100438000A128A114C250A128A11A7000A128A1177
:10044800EC240A128A11831203132008C000210821
:10045800C1002208C2002308C30030300A128A11E2
:1004680081240A128A11003083120313A30000307A
:10047800A2002730A1001030A0000F3084000A121B
:100488008A114C250A128A11A4000A128A114C25D5
:100498000A128A11A5000A128A114C250A128A1119
:1004A800A6000A128A114C250A128A11A7000A12FC
:1004B8008A11EC240A128A11831203132008C0003F
:1004C8002108C1002208C2002308C30030300A12E4
:1004D8008A1181240A128A1138300A128A11812459
:1004E8000A128A1101300A128A1181240A128A1109
:1004F800003083120313A3000030A2000130A100D2
:10050800F430A0000F3084000A128A114C250A1218
:100518008A11A4000A128A114C250A128A11A50010
:100528000A128A114C250A128A11A6000A128A1187
:100538004C250A128A11A7000A128A11EC240A1201
:100548008A11831203132008C0002108C100220861
:10055800C2002308C3000C300A128A1181240A122F
:100568008A1106300A128A1181240A128A118030EF
:100578000A128A1181240A128A1115300A128A1164
:100588002F200A128A11C0300A128A1181240A12F5
:100598008A1126300A128A112F200800003083128F
:1005A8000313A3000030A2000030A1000A30A0000D
:1005B8000F3084000A128A114C250A128A11A400ED
:1005C8000A128A114C250A128A11A5000A128A11E8
:1005D8004C250A128A11A6000A128A114C250A1201
:1005E8008A11A7000A128A11EC240A128A118312AE
:1005F80003132008F5002108F6002208F700230855
:10060800F80083120313AD01AE012E08803AFF00F3
:1006180080307F02031D122B64302D02031808005E
:100628008312031385160030A3000030A2000330A4
:10063800A100E830A0000F3084000A128A114C256E
:100648000A128A11A4000A128A114C250A128A1168
:10065800A5000A128A114C250A128A11A6000A124C
:100668008A114C250A128A11A7000A128A11EC2451
:100678000A128A11831203132008F5002108F600D4
:100688002208F7002308F8008312031385120030AC
:10069800A3000030A2000730A100D030A0000F3026
:1006A80084000A128A114C250A128A11A4000A121F
:1006B8008A114C250A128A11A5000A128A114C25A2
:1006C8000A128A11A6000A128A114C250A128A11E6
:1006D800A7000A128A11EC240A128A118312031342
:1006E8002008F5002108F6002208F7002308F80082
:1006F800013083120313AD070318AE0A0030AE07AA
:10070800092B83120313C600E02B0A128A119B26B9
:100718000A128A11FF2B83120313460A84008313DB
:1007280000080A128A118F270A128A11FF2B0A124F
:100738008A119B260A128A1183120313460A84001F
:10074800831300080A128A118F270A128A11FF2BB5
:100758000A128A11F6260A128A11FF2B8312031332
:10076800460A8400831300080A128A118F270A1286
:100778008A11FF2B0A128A11F6260A128A1183128D
:100788000313460A8400831300080A128A118F276C
:100798000A128A11FF2B00300A128A118F270A12B7
:1007A8008A110A128A11D2220A128A110A128A118D
:1007B800D2220A128A11FF2B8312031346088400DF
:1007C80083130008313A03199B2B033A0319CF2BE3
:1007D800073A03198F2B023A0319892B453A031953
:1007E800AC2B013A0319CF2B043A0319B22B0F3A59
:1007F8000319BE2BFF2B831203135708C100560899
:10080800C0001508C5004508C2000A128A11212730
:10081800080083120313AD00791C7A2C09142D08E3
:10082800880009150030A3000F30A2004230A10053
:100838004030A0000F3084000A128A114C250A1299
:100848008A11A4000A128A114C250A128A11A500DD
:100858000A128A114C250A128A11A6000A128A1154
:100868004C250A128A11A7000A128A11EC240A12CE
:100878008A11831203132008F5002108F6002208C4
:10088800F7002308F8008312031309110030A300AE
:100898000030A2004E30A1002030A0000F308400AC
:1008A8000A128A114C250A128A11A4000A128A1106
:1008B8004C250A128A11A5000A128A114C250A121F
:1008C8008A11A6000A128A114C250A128A11A70059
:1008D8000A128A11EC24831203132008F500210858
:1008E800F6002208F7002308F80008008312031313
:1008F8000C1E7A2C2D089900080083120313AD00F2
:1009080009102D08880009150030A3000F30A20037
:100918004230A1004030A0000F3084000A128A1132
:100928004C250A128A11A4000A128A114C250A12AF
:100938008A11A5000A128A114C250A128A11A600EA
:100948000A128A114C250A128A11A7000A128A1162
:10095800EC240A128A11831203132008F5002108D7
:10096800F6002208F7002308F80083120313091180
:100978000030A3000030A2004E30A1002030A000BB
:100988000F3084000A128A114C250A128A11A40019
:100998000A128A114C250A128A11A5000A128A1114
:1009A8004C250A128A11A6000A128A114C250A122D
:1009B8008A11A7000A128A11EC2483120313200853
:1009C800F5002108F6002208F7002308F8000800BF
:1009D800003083120313AB000030AA000030A900D6
:1009E8000030A80023082204210420040319432D01
:1009F800AC01AC0AA31B0E2D0130F4000310A00DAE
:100A0800A10DA20DA30DF40B022D0130F400740802
:100A1800AC07FE2C0130F4000310A80DA90DAA0D97
:100A2800AB0DF40B102D23082702031D252D2208DA
:100A38002602031D252D21082502031D252D20082A
:100A48002402031C362D2008A4022108031C210FB0
:100A5800A5022208031C220FA6022308031C230F49
:100A6800A702281401300310A30CA20CA10CA00C9F
:100A7800FF3E031D372D0130AC02031D0E2D2B0840
:100A8800A3002A08A2002908A1002808A00008003D
:100A980005308A000408840A8207003401340034CF
:100AA8000A34003464340034E8340334103427340E
:100AB80000344B340034003440344B344C3400346C
:100AC800683401344C34413442342E3443344F3486
:100AD8004E3454342E34443449344734493454342D
:100AE80041344C340034533465346A34613420342E
:100AF800423465346D342D34563469346E3464347C
:100B08006F3421340034703477346D343A342034FF
:100B18002534333464342534253400347234703445
:100B280073343A342034253433347534003425345E
:100B3800753400340B308312031390000F30970084
:100B48009501643083160313920004308312031353
:100B58009200FB30831603138700383081007F3002
:100B6800860090308B008801F8308900CF308500EE
:100B780090308312031398002430831603139800CF
:100B8800403099000A128A11F4210A128A110A12B5
:100B98008A11D2220A128A110A128A11D2220A1240
:100BA8008A110A128A11D2220A128A118312031395
:100BB800D201D3015308C8005208C7004C300A12AA
:100BC8008A11CA260A128A11831203134808D3000D
:100BD8004708D200DE2D83120313A701A8012208BB
:100BE80023040319282EA601A60AA31B072E0130E9
:100BF8000310A20DA30DFF3E031DFC2D0130F800CC
:100C08007808A607F92D01300310A70DA80DFF3E9F
:100C1800031D082E23082502031D142E2208240272
:100C2800031C1D2E2208A4022308031CA503A502E9
:100C3800271401300310A30CA20CFF3E031D1E2E27
:100C48000130A602031D072E2808A3002708A200CA
:100C580008008312031329082A040319602E2E089A
:100C6800A3002D08A2002A08F5002908F400133073
:100C780084000A128A114C250A128A11F6000A12F7
:100C88008A114C250A128A11F7000A128A1148277C
:100C98000A128A11750883120313A5007408A400A8
:100CA8000A128A11EF25831203132308AC002208C5
:100CB800AB00A901AA010800FF30A900FF30AA0073
:100CC800AB01AC0108008312031329082A04031995
:100CD800962EAE01AE0AAA1B7D2E01300310A90D77
:100CE800AA0DFF3E031D722E0130AD002D08AE0780
:100CF8006F2E2A082C02031D832E29082B02031CA1
:100D08008B2E2908AB022A08031CAC03AC02013065
:100D18000310AA0CA90CFF3E031D8C2E0130AE0255
:100D2800031D7D2E2C08AA002B08A90008007910A5
:100D3800831203130108C000C1014008AF00410835
:100D4800B0004A300A128A112F200A128A1183121F
:100D5800031381015708AC005608AB005508AA00D8
:100D68005408A9000F08AE000E08AD000A128A1137
:100D78002D26831203132C08D7002B08D6002A0827
:100D8800D5002908D4008E018F01080083120313AF
:100D9800CB000A128A1195270A128A1183120313AB
:100DA800C90047084B07CA004A088400490883134A
:100DB800800047084B07C900490884000A3000062C
:100DC800031DED2EC701C8014B080A128A1185239D
:100DD8000800013083120313C7070318C80A00303C
:100DE800C80708007910831203135708AC00560887
:100DF800AB005508AA005408A9000F08AE000E0859
:100E0800AD000A128A112D260A128A1183120313C1
:100E18002C08D7002B08D6002A08D5002908D400AA
:100E28005708B0005608AF004A300A128A112F201E
:100E3800831203138E018F0108007914C0300A123F
:100E48008A1181240A128A11831203134108B000FF
:100E58004008AF0041300A128A112F200A128A1165
:100E6800C8300A128A1181240A128A1183120313C4
:100E78004208C300C4014308AF004408B00036303C
:100E88000A128A112F20080083120313A001A1015E
:100E9800741C562F760883120313A0070318A10A9F
:100EA8007708A10701300310F60DF70DFF3E031D6B
:100EB800572F01300310F50CF40CFF3E031D5E2F75
:100EC80074087504031D4C2F831203132108F500C1
:100ED8002008F40008000130D4070318D50A0030B0
:100EE800D5078B107308FF0072088A007108840008
:100EF800700E8300FE0E7E0E0900F500F4013A30F4
:100F0800750203188D2F30307502031C8D2FF401E4
:100F1800F40A740C0800F400740883120313950093
:100F28000800831203138C1E952F1A080800FF343B
:060F3800FF340034003418
:02400E003A3F37
:00000001FF
