:060000000A128A11122809
:10000800FE00030EF1000408F2000A08F300831250
:1000180003137F08F4000A128A11B4290A128A11FC
:10002800152883133130FD000230FE000630FF0032
:10003800203084000A128A111B22B901BA01BB01BF
:10004800BC01BD01F80183010A128A112B288530F1
:1000580083160313810080308B000330831203134F
:1000680090000F30970095010F309D009B01643080
:100078008316031392000430831203139200053091
:10008800831603139F00FD308700FF308600DF30A2
:1000980085009030831203139800243083160313CD
:1000A80098000C30990083120313861CF328003043
:1000B8000A128A115C210A128A118230F700DD3097
:1000C800F600F60B6528F70B65286A2800300A1237
:1000D8008A115C210A128A118230F700DD30F6009D
:1000E800F60B7428F70B7428792800300A128A1145
:1000F8005C210A128A118230F700DD30F600F60B17
:100108008328F70B83288828D8280A128A11D52132
:100118000A128A11D5288312031321080A128A1198
:10012800F0210A128A11D5288312031321080A1212
:100138008A11F0210A128A110A128A11D5210A128B
:100148008A11D52800300A128A11F0210A128A1160
:1001580000300A128A115C210A128A1100300A1230
:100168008A115C210A128A11D528831203132008E8
:10017800313A03199828033A0319A628073A0319AC
:100188008F28023A03198928453A03198928013A20
:100198000319A628043A03198F280F3A0319982837
:1001A800D52883120313BD010A128A1130220A12BC
:1001B8008A11F600760883120313B6000A30360651
:1001C8000319B9283608F6003D08203E8400760851
:1001D800831380000130F6007608BD07D828003068
:1001E8000A128A115C210A128A118230F700DD3066
:1001F800F600F60BFD28F70BFD28022901300A123C
:100208008A115C210A128A118230F700DD30F6006B
:10021800F60B0C29F70B0C2911292E293708F600A3
:100228007608BB0039080A128A1128220A128A1194
:10023800831203133A080A128A1128220A128A1111
:100248002E293708F6007608BC008E018F0181013F
:100258008B1610140A128A1130220A128A11F6001B
:10026800760883120313B8000A128A1130220A1280
:100278008A11F600760883120313B700783038061F
:100288000319122974308312031338060319252918
:100298007330831203133806031D2E299B01DF30A8
:1002A800F60076088B05FE30F600760890052E29B4
:1002B80083120313B1003108031D8A29B201B30167
:1002C8003308803AFF0080307F02031D6D296430B7
:1002D800320203180800831203138516C730F5008D
:1002E8007529F50B74297829792983120313851246
:1002F800A630F500F50B7E290000013083120313A8
:10030800B2070318B30A0030B30764298312031332
:10031800B401B5013508803AFF0081307F02031D22
:100328009729F43034020318080083120313851642
:10033800C730F5009F29F50B9E29A229A32983120E
:1003480003138512A630F500F50BA829000001302B
:1003580083120313B4070318B50A0030B5078E29B2
:100368000130F0007008F80778083C020318C92922
:10037800F8010F08BA000E08B9003B089B003908BD
:100388008E023A08031C8F038F020B117408FF00BA
:1003980073088A0072088400710E8300FE0E7E0EB8
:1003A8000900831203130F08BA000E08B9003A08AF
:1003B8000A128A1128220A128A1183120313390891
:1003C8000A128A1128228312031339088E023A0866
:1003D800031C8F038F020800F5007508803A1B3E46
:1003E800031CFB296430831203139B000800F51FCC
:1003F800012A831203139B01080075088312031353
:100408009B00080020342034203420342034203449
:100418002034203420342034203420342034203434
:100428002034203400347E088A007F088200172296
:100438000A128A118000840A04087D060319003410
:10044800FF0A0319FE0A1B2AF500831203130C1E68
:10045800292A750899000800831203138C1E302A74
:040468001A08080066
:02400E003A3F37
:00000001FF
