:040000006AEF00F0B3
:100018004380D8CF01F0E8CF02F0E0CF03F0FACF69
:1000280004F0FBCF05F0E9CF06F0EACF07F0E1CF07
:1000380008F0E2CF09F0D9CF0AF0DACF0BF0F3CF0E
:100048000CF0F4CF0DF0F6CF0EF0F7CF0FF0F8CF9D
:1000580010F0F5CF11F043C012F044C013F045C0C2
:1000680014F046C015F04050D8B403D08A8C000E66
:100078002E6EF29415C046F014C045F013C044F03B
:1000880012C043F011C0F5FF10C0F8FF0FC0F7FF12
:100098000EC0F6FF0DC0F4FF0CC0F3FF0BC0DAFF73
:1000A8000AC0D9FF09C0E2FF08C0E1FF07C0EAFFA4
:1000B80006C0E9FF05C0FBFF04C0FAFF03C0E0FF6C
:1000C80002C0E8FF01C0D8FF43901000ACEF07F072
:100800000001000A006400E803102748E8010040E6
:10081000420F004C41422E434F4E542E444947490B
:1008200054414C00544D5230204F564552464C4F87
:1008300057203D500053656A612042656D2D566911
:100840006E646F210070776D202533642525007458
:100850006D72202533752000286E756C6C2900257B
:0308600073000022
:10086400240E0001626F000E0001636FC6D1250ED5
:1008740000016C19D8B405D000016C5167EC07F085
:10088400BCD1000E00016B6F000E6A6F000E0001F8
:10089400616F22C0F6FF23C0F7FF0800F55004EC97
:1008A40008F0D8A0CDD0000E00016B6F000E6A6F67
:1008B4006AC016F06BC017F0000E196E0A0E186E9F
:1008C400E0EC07F016C06AF017C06BF0D00E266E8D
:1008D400FF0E276E22C0F6FF23C0F7FF0800F55075
:1008E400286E296A265028262750292228500001DC
:1008F4006A27295000016B23224A232A22C0F6FFCB
:1009040023C0F7FF0800F55004EC08F0D8A098D0F5
:10091400CFD762C0D9FF63C0DAFFDECF64F0DDCF8A
:1009240065F0020E00016227000E6323000164518A
:1009340000016511D8A406D0580E0001646F080E9A
:100944000001656F000E0001696F000E686F03D02F
:100954000001684B692B0001685100016425266E73
:100964000001695100016521276E26C0F6FF27C0EA
:10097400F7FFF86A070EF76403D00800F55005D0B6
:10098400F6CFE9FFF7CFEAFFEF500009D8A4E0D78C
:1009940000016A510001685D00016B510001695951
:1009A400D8B009D00001685100016A5F00016951A3
:1009B40000016B5B09D0000E00016B6F000E6A6FC3
:1009C40003D0200E67EC07F000016A07D8A06B077C
:1009D40000016A29F6E100016B29D8B416D0F1D7D9
:1009E40064C0F6FF65C0F7FFF86A070EF76403D02A
:1009F4000800F55005D0F6CFE9FFF7CFEAFFEF5036
:100A040067EC07F00001644B652B00016807D8A070
:100A1400690700016829E4E100016929D8B4EDD02F
:100A2400DFD76C0E0001646F000E0001656F000ECD
:100A34000001696F010E686FABD70001618D1BD097
:100A440022C0F6FF23C0F7FF224A232A0800F5CF6D
:100A54006CF000016C51000AD8B41200640AD8B4D6
:100A64000AD00D0AD8B407D01A0AD8B452D7060A45
:100A7400D8B4E3D7D6D7000161BD19D062C0D9FF7D
:100A840063C0DAFFDECF66F0DDCF67F0020E00014F
:100A94006227000E6323000167AF16D0030E000126
:100AA40061130001666D671FD8B0672B0DD062C05B
:100AB400D9FF63C0DAFFDECF66F0DDCF67F0020E48
:100AC40000016227000E6323010E00016C6F050E06
:100AD40000016C19D8B416D000016C51020D010E3E
:100AE400F324F66E080EF420F76E0900F5500001A9
:100AF400665D0900F55000016759D8A003D00001D4
:100B04006C2BE5D700016A5100016B11D8B40AD0EF
:100B140061C026F0030E2616D8B404D000016A077B
:100B2400D8A06B07800E00016CBF7F0E266E0001FB
:100B34006A5100016C5D00016B51800A2658D8B0DF
:100B44000BD000016C5100016A5F000E00016CBF04
:100B5400FF0E00016B5B05D0000E00016B6F000EF1
:100B64006A6F00016A5100016B11D8B40DD0200ED8
:100B740067EC07F000016A07D8A06B0700016A510F
:100B840000016B11D8A4F3D761C026F0030E26161A
:100B9400D8B403D02D0E67EC07F06CC060F027D0FA
:100BA40000016051020D010EF324F66E080EF420CC
:100BB400F76E0900F5CF18F00A00F5CF19F066C0FA
:100BC40016F067C017F01AEC07F016C01DF017C036
:100BD4001EF0000E206E0A0E1F6E8BEC07F01D50E7
:100BE400300F00016C6F00016C5167EC07F00001DD
:100BF400600700016029D8A4D3D722C0F6FF23C020
:100C0400F7FF224A232A0800F5CF6CF000016C514B
:100C1400D8B412002CD6F10ECD6E0F0EBA6E000EA3
:100C2400BB6E640ECB6E040ECA6ED568070EC26E20
:100C34000D0EC16E000EC06E9268000E936EC00E53
:100C4400946E900EAB6E240EAC6E0C0EAF6E000E56
:100C5400F16E300E9F6EE1EC06F0080E2C6E9D0EC8
:100C64002B6E060EE82EFED72B2EFCD72C2EFAD791
:100C7400C6EC07F0820E2B6EDE0EE82EFED72B2E6E
:100C8400FCD7C6EC07F0820E2B6EDE0EE82EFED7E4
:100C94002B2EFCD7C6EC07F0820E2B6EDE0EE82E50
:100CA400FED72B2EFCD7F2949E90000ED76E000E2A
:100CB400D66E000ECF6E000ECE6EC00EF26E9EA0EB
:100CC40035D0800E43EC07F02E04D8A40BD05F0E71
:100CD400226E080E236E2F0E246E000E256E32EC4B
:100CE40004F009D02E50D8A406D0240E226E080E8B
:100CF400236E32EC04F0C00E43EC07F04F0E226E6C
:100D0400080E236E41C024F0256A32EC04F0C80EAC
:100D140043EC07F0450E226E080E236EBB50246E82
:100D2400256A24BE250632EC04F09E902FEC08F0D0
:100D34002D6E0A0E2D18D8A436D0010E406E17D091
:100D440013EC08F02DD03050F3EC07F029D03050DC
:100D5400F3EC07F013EC08F023D0000E406E000E05
:100D6400F3EC07F0C6EC07F0C6EC07F019D02F50EF
:100D7400310AD8B4ECD7030AD8B4EFD7070AD8B4E9
:100D8400E2D7020AD8B4DCD7450AD8B4D9D7010AC5
:100D9400D8B4E3D7040AD8B4D6D70F0AD8B4D7D76F
:100DA400000E426E8CD74250010D2F0EF324D96EE3
:100DB400000EF420DA6E2DC0DFFF422A80D71A0E0F
:100DC4002A6EF80EE82EFED72A2EFCD700D0020E8B
:100DD40043EC07F0070E2A6E7D0EE82EFED72A2E6E
:100DE400FCD700F0280E43EC07F0010E43EC07F0AB
:100DF400030E2A6E980EE82EFED72A2EFCD70C0E70
:100E040043EC07F0060E43EC07F0800E43EC07F0CA
:100E1400130E226E080E236E32EC04F0C00E43EC67
:100E240007F0350E226E080E236E32EC04F0120029
:100E3400000E1C6E000E1B6E18501910D8B41CD076
:100E4400010E1A6E04D0D890183619361A2A19AE23
:100E5400FAD7D8901B361C361850165C1950175800
:100E6400D8A005D01850165E1950175A1B80D89078
:100E7400193218321A2EEDD71BC016F01CC017F009
:100E84001200176E000EBA6E8A9A17C016F0163A40
:100E94000F0E16168A501618F00B16188A6E8A88CA
:100EA40000F08A98100EE82EFED700D08A5017184A
:100EB400F00B17188A6E8A8800F08A98100EE82EB4
:100EC400FED700D00F0EBA6E1200176E000EBA6E67
:100ED4008A8A17C016F0163A0F0E16168A5016187C
:100EE400F00B16188A6E8A8800F08A98100EE82E85
:100EF400FED700D08A501718F00B17188A6E8A880C
:100F040000F08A98100EE82EFED700D00F0EBA6EAD
:100F140012001F502010D8B418D0010E216E04D036
:100F2400D8901F362036212A20AEFAD71F501D5CD8
:100F340020501E58D8A004D01F501D5E20501E5AA9
:100F4400D89020321F32212EF1D71DC01DF01EC0B3
:100F54001EF01200400EF66E100EF76E000EF86EC4
:100F640000EE2EF010EE12F00900F5CFEEFFE55082
:100F7400E150FAE1426A416A406A43904392000EAA
:100F8400F86E00010DEF06F0000E176E000E166EDF
:100F940017BE06D0175011E1640E165CD8B01200CB
:100FA4008A8CC80E00D0E82EFDD78A9CA60EE82EA7
:100FB400FED700D0164A172AEBD712001650180293
:100FC400F3CF1AF0F4CF1BF016501902F3501B267E
:100FD40017501802F3501B261AC016F01BC017F046
:100FE4001200166E1650800A1B0FD8A003D0640E90
:100FF400BB6E120016AE03D0000EBB6E120016C0FC
:10100400BBFF1200186E000E176E3A0E186005D062
:101014002F0E186402D0010E176E17C016F016308A
:101024001200D6CF41F0000E29EC08F0415029EC13
:1010340008F04150D65E000ED75A1200012020203D
:101044002020202020202020202020202000166E78
:101054009EA8FED716C0ADFF12009EAAFED7AE50C2
:02106400120078
:020000040020DA
:08000000FFFFFFFFFFFFFFFF00
:020000040030CA
:0E000000000C191EFF8281FF0FC00FE00F40A1
:00000001FF
