:060000000A128A11122809
:10000800FE00030EF0000408F1000A08F200831253
:1000180003137F08F3000A128A15EE2F0A128A11B9
:10002800152883136430FD000730FE00F430FF000C
:100038005A3084000A128A15E12783010A128A11AC
:10004800322C83120313BB002E30B0003008B500E9
:10005800013083120313BB07FF303B0784000A12E9
:100068008A1162260A128A11B0003008BE003E08C2
:100078000319080025303E06031949283E080A12CC
:100088008A11B6240A128A112C2883120313BC0180
:10009800BD01B8013B0884000A128A1162260A12BF
:1000A8008A110A128A15CF270A128A11031CE92815
:1000B80083120313BC01BD010A3083120313A3008A
:1000C8000030A4003D08A6003C08A5000A128A11C9
:1000D800BF270A128A11831203132408BD002308BC
:1000E800BC003B0884000A128A1162260A128A118F
:1000F800D03EB000FF3003180030B1003008BC0714
:100108000318BD0A3108BD070130B0003008BB072D
:100118003B0884000A128A1162260A128A110A12FE
:100128008A15CF270A128A11031CE928602883122E
:1001380003133D083702031DA3283C0836020318A1
:10014800AC283608BC023708031CBD03BD02AE2824
:10015800BC01BD01FF3083120313BC070318BD0A9D
:10016800FF30BD073C0A03193D0A0319D128203086
:100178000A128A11B6240A128A11AE28330884009A
:10018800831300080A128A11B6240A128A11013050
:1001980083120313B0003008B3070130B6020030F1
:1001A800031CB703B702360A031DC228370A03190E
:1001B8002C28C2283E30B0003008B3000130B60009
:1001C8000030B7009B283817032901308312031326
:1001D800BB07FF303B0784000A128A1162260A1205
:1001E8008A11BE00003A0319E929643A0319032960
:1001F8000D3A031903291C3A0319E728DE2883124C
:100208000313381B1F293508840083130008B9001D
:10021800840A0008BA000230B0003008B507BA1FD7
:100228002B290330B0003008B804B909BA09B90A53
:100238000319BA0A2B293508840083130008B9006A
:10024800840A0008BA000230B0003008B507BE01C1
:10025800BE0A05303E06031952293E08B000300791
:10026800013E84000A128A1162260A128A11B1001C
:100278000A128A1162260A128A11B20032083A0258
:10028800031D482931083902031C52290130B000E6
:100298003008BE0705303E06031D31293C083D04E1
:1002A800031960293808033903196029FF30BC078E
:1002B8000318BD0AFF30BD073E08B000B101B01BEE
:1002C800B1033108803AB2003D08803A3202031D7A
:1002D8006F293C08300203187F29831203133E0854
:1002E800B000B101B01BB1033008BC023108031CD7
:1002F800BD03BD02832983120313BC01BD013C0861
:100308003D040319992920300A128A11B6240A12C9
:100318008A11FF3083120313BC070318BD0AFF308C
:10032800BD073C083D04031D872938080339031914
:10033800A3292D300A128A11B6240A128A118312AF
:1003480003133E08B0003008B400FF3083120313D3
:10035800B0003008B407340A03192C280A30A30067
:100368000030A4003408B0003007013E84000A12AF
:100378008A1162260A128A11F4000A128A11622668
:100388000A128A11F5003A08F7003908F6000A122D
:100398008A11FA260A128A11750883120313A60015
:1003A8007408A5000A128A1138270A128A118312C2
:1003B80003132308303EB1003108BE003E080A127C
:1003C8008A11B6240A128A11A929080079148312FD
:1003D8000313891030300A128A1197250A128A11DC
:1003E800003083120313A3000030A2000030A100E4
:1003F800C830A0000F3084000A128A1162260A123F
:100408008A11A4000A128A1162260A128A11A5000A
:100418000A128A1162260A128A11A6000A128A1181
:1004280062260A128A11A7000A128A1102260A12E3
:100438008A11831203132008BF002108C000220874
:10044800C1002308C20030300A128A1197250A1207
:100458008A11003083120313A3000030A200273052
:10046800A1001030A0000F3084000A128A11622601
:100478000A128A11A4000A128A1162260A128A1123
:10048800A5000A128A1162260A128A11A6000A1207
:100498008A1162260A128A11A7000A128A110226F4
:1004A8000A128A11831203132008BF002108C00012
:1004B8002208C1002308C20030300A128A11972589
:1004C8000A128A1138300A128A1197250A128A11DB
:1004D80001300A128A1197250A128A1100308312F4
:1004E8000313A3000030A2000130A100F430A000E3
:1004F8000F3084000A128A1162260A128A11A40097
:100508000A128A1162260A128A11A5000A128A1191
:1005180062260A128A11A6000A128A1162260A1293
:100528008A11A7000A128A1102260A128A11831256
:1005380003132008BF002108C0002208C1002308B7
:10054800C2000C300A128A1197250A128A11063045
:100558000A128A1197250A128A1180300A128A1102
:1005680097250A128A1117300A128A1125200A12B1
:100578008A11C0300A128A1197250A128A11283066
:100588000A128A1125200800831203132C0834024A
:10059800031DD02A2B0833020318D92AA901AA015E
:1005A8003408AC003308AB00080029082A040319F2
:1005B8003A2B2B09B5002C09B600B50A0319B60A5F
:1005C80033083507F40034080318340A3607F500F1
:1005D800153084000A128A1162260A128A11F6005E
:1005E8000A128A1162260A128A11F7000A128A115F
:1005F800FA260A128A11750883120313A4007408D4
:10060800A3002A08A6002908A5000A128A11BF27F4
:100618000A128A11831203132408BA002308B900A6
:100628003008F5002F08F4003A08F7003908F600FA
:100638000A128A11FA260A128A11750883120313FC
:10064800AE007408AD002E083202031D2D2B2D08B4
:1006580031020318332B2E08B2002D08B100A9016E
:10066800AA013408AC003308AB0008002B09B50018
:100678002C09B600B50A0319B60A33083507B700BE
:1006880034080318340A3607B800133084000A12F5
:100698008A1162260A128A11F4000A128A11622645
:1006A8000A128A11F500153084000A128A1162268E
:1006B8000A128A11F6000A128A1162260A128A118F
:1006C800F7000A128A11FA260A128A1183120313F2
:1006D80038087502031D722B3708740203180800C6
:1006E800FF30A900FF30AA00AD01AE013408AC000C
:1006F8003308AB000800003083120313A300003056
:10070800A2000030A1000A30A0000F3084000A12B5
:100718008A1162260A128A11A4000A128A11622614
:100728000A128A11A5000A128A1162260A128A116F
:10073800A6000A128A1162260A128A11A7000A1252
:100748008A1102260A128A11831203132008F5005F
:100758002108F6002208F7002308F8008312031383
:10076800AD01AE012E08803AFF0080307F02031DE4
:10077800BF2B64302D02031808008312031385165B
:100788000030A3000030A2000330A100E830A00030
:100798000F3084000A128A1162260A128A11A400F4
:1007A8000A128A1162260A128A11A5000A128A11EF
:1007B80062260A128A11A6000A128A1162260A12F1
:1007C8008A11A7000A128A1102260A128A118312B4
:1007D80003132008F5002108F6002208F700230873
:1007E800F8008312031385120030A3000030A20022
:1007F8000730A100D030A0000F3084000A128A11FF
:1008080062260A128A11A4000A128A1162260A12A2
:100818008A11A5000A128A1162260A128A11A600F4
:100828000A128A1162260A128A11A7000A128A116C
:1008380002260A128A11831203132008F5002108E0
:10084800F6002208F7002308F8000130831203138A
:10085800AD070318AE0A0030AE07B62BFB30831283
:10086800031390000F30970095016430831603132B
:1008780092000430831203139200FB308316031393
:100888008700383081007F30860090308B008801E7
:10089800F8308900CF308500903083120313980018
:1008A80024308316031398000C3099000A128A1119
:1008B800EA210A128A110A128A117F230A128A115E
:1008C8000A128A117F230A128A110A128A117F23B7
:1008D8000A128A1183120313D801D901752CD60183
:1008E800D7015908C9005808C80050300A128A119F
:1008F8006C270A128A11831203134908D900480881
:10090800D800153084000A128A1162260A128A1148
:10091800CD000A128A1162260A128A11CE004E08E8
:100928000F02031D992C4D080E02031C732C560848
:100938005704031D752C0108CD00CE014D08BF00DA
:100948004E08C0001508CF004F08C1000A128A11CE
:1009580098270A128A11013083120313D600003037
:10096800D700752C83120313AD00791C232D0914AD
:100978002D08880009150030A3000F30A20042306E
:10098800A1004030A0000F3084000A128A116226AC
:100998000A128A11A4000A128A1162260A128A11FE
:1009A800A5000A128A1162260A128A11A6000A12E2
:1009B8008A1162260A128A11A7000A128A110226CF
:1009C8000A128A11831203132008F5002108F60081
:1009D8002208F7002308F8008312031309110030D6
:1009E800A3000030A2004E30A1002030A0000F303C
:1009F80084000A128A1162260A128A11A4000A12B5
:100A08008A1162260A128A11A5000A128A11622620
:100A18000A128A11A6000A128A1162260A128A117B
:100A2800A7000A128A110226831203132008F50070
:100A38002108F6002208F7002308F80008008312AE
:100A480003130C1E232D2D0899000800831203138D
:100A5800C700772D0A128A11E227080083120313B0
:100A6800470A8400831300080A128A15C927080058
:100A78000A128A11E2270A128A1183120313470AFB
:100A88008400831300080A128A15C92708000A126D
:100A98008A11B926080083120313470A84008313B6
:100AA80000080A128A15C92708000A128A11B926ED
:100AB8000A128A1183120313470A84008313000859
:100AC8000A128A15C927080000300A128A15C92790
:100AD8000A128A110A128A117F230A128A110A122B
:100AE8008A117F23080083120313470884008313A5
:100AF8000008313A03193C2D033A0319682D073AC7
:100B08000319322D023A03192E2D453A03194B2D9C
:100B1800013A0319682D043A03194F2D0F3A0319A6
:100B2800592D962D080083120313AD0009102D08C6
:100B3800880009150030A3000F30A2004230A10040
:100B48004030A0000F3084000A128A1162260A126F
:100B58008A11A4000A128A1162260A128A11A500B3
:100B68000A128A1162260A128A11A6000A128A112A
:100B780062260A128A11A7000A128A1102260A128C
:100B88008A11831203132008F5002108F6002208B1
:100B9800F7002308F8008312031309110030A3009B
:100BA8000030A2004E30A1002030A0000F30840099
:100BB8000A128A1162260A128A11A4000A128A11DC
:100BC80062260A128A11A5000A128A1162260A12DE
:100BD8008A11A6000A128A1162260A128A11A7002F
:100BE8000A128A110226831203132008F50021082D
:100BF800F6002208F7002308F800080000308312E6
:100C08000313AB000030AA000030A9000030A80090
:100C180023082204210420040319592EAC01AC0A2C
:100C2800A31B242E0130F4000310A00DA10DA20D6A
:100C3800A30DF40B182E0130F4007408AC07142E21
:100C48000130F4000310A80DA90DAA0DAB0DF40B8B
:100C5800262E23082702031D3B2E22082602031DE9
:100C68003B2E21082502031D3B2E20082402031CCD
:100C78004C2E2008A4022108031C210FA5022208DB
:100C8800031C220FA6022308031C230FA702281403
:100C980001300310A30CA20CA10CA00CFF3E031DF5
:100CA8004D2E0130AC02031D242E2B08A3002A0868
:100CB800A2002908A1002808A000080006308A0020
:100CC8000408840A82070034013400340A340034EA
:100CD80064340034E83403341034273400344B349B
:100CE80000340034403442340F34003408340034C3
:100CF800003410344C34413442342E3443344F34AD
:100D08004E3454342E3444344934473449345434FA
:100D180041344C340034533465346A3461342034FB
:100D2800423465346D342D34563469346E34643449
:100D38006F3421340034703477346D343A342034CD
:100D48002534333464342534253400346234703423
:100D580073343A342034253433347534003425342C
:100D68006434003425347534003479102930840013
:100D78005A3083120313BF000408C0000A30C100B0
:100D88003F08840083130008C200BF0A400884009B
:100D980042088000C00AC10BC42E0F08B4000E0818
:100DA800B3000A128A11C8220A128A115A30840022
:100DB800831203132930C3000408C4000A30C50095
:100DC8004308840083130008C600C30A440884004B
:100DD80046088000C40AC50BE42E5F08AF005E0811
:100DE800AE004F300A128A1125200800831203131F
:100DF800A001A101740875040319332FA201A20AE6
:100E0800F51B122F01300310F40DF50DFF3E031DE5
:100E1800072F0130F8007808A207042F01300310CB
:100E2800A00DA10DFF3E031D132F75087702031DAA
:100E38001F2F74087602031C282F7408F602750801
:100E4800031CF703F702201401300310F50CF40C0F
:100E5800FF3E031D292F0130A202031D122F210876
:100E6800F5002008F4000800831203132308240463
:100E78000319672FA801A80AA41B4E2F01300310DD
:100E8800A30DA40DFF3E031D432F0130A700270823
:100E9800A807402F24082602031D542F23082502E3
:100EA800031C5C2F2308A5022408031CA603A60222
:100EB80001300310A40CA30CFF3E031D5D2F01306D
:100EC800A802031D4E2F2608A4002508A300080029
:100ED80083120313CC000A128A15C3270A128A1137
:100EE80083120313CA0048084C07CB004B08840040
:100EF8004A088313800048084C07CA004A0884003F
:100F08000A300006031D8F2FC801C9014C080A12B8
:100F18008A112A250800013083120313C807031811
:100F2800C90A0030C90708007914C0300A128A11AA
:100F380097250A128A11831203134008AF003F084D
:100F4800AE0043300A128A1125200A128A11C830CD
:100F58000A128A1197250A128A118312031341086B
:100F6800C200C3014208AE004308AF0038300A127D
:100F78008A112520080083120313A701A801231C46
:100F8800CB2F2508A7070318A80A2608A8070130A9
:100F98000310A50DA60DFF3E031DCC2F0130031035
:100FA800A40CA30CFF3E031DD32F23082404031D08
:100FB800C32F2808A4002708A3000800791083126B
:100FC80003130108BF00C0013F08AE004008AF008E
:100FD8004C300A128A11252083120313810108005C
:100FE800FF34FF3400340034003400340734003454
:040FF80088341334F2
:101F8600831203138C1EC32F1A080800F40074086A
:101F96008312031395000800F500F4013A30750228
:101FA6000318DB2F30307502031CDB2FF401F40A13
:101FB600740C08007E088A007F088200DD270A125A
:101FC6008A158000840A04087D0603190034FF0A76
:101FD6000319FE0AE12F0130DA070318DB0A003085
:101FE600DB078B107308FF0072088A0071088400F3
:0A1FF600700E8300FE0E7E0E09003F
:02400E003B3F36
:00000001FF
