:060000000A128A11122809
:10000800FE00030EF0000408F1000A08F200831253
:1000180003137F08F3000A128A11AA290A128A1107
:10002800152883134C30FD000130FE00CF30FF004F
:10003800423084000A128A11C22183010A128A11ED
:10004800DC28831203132B083302031D2D282A08EA
:10005800320203183628A801A9013308AB00320878
:10006800AA00080028082904031997282A09B400B7
:100078002B09B500B40A0319B50A32083407A000E1
:1000880033080318330A3507A100033084000A1225
:100098008A11D9210A128A11A2000A128A11D921B9
:1000A8000A128A11A3000A128A114B210A128A1114
:1000B800831203132108F5002008F4002908F7002B
:1000C8002808F6000A128A1189210A128A1175086D
:1000D80083120313B9007408B8002F08A1002E0872
:1000E800A0003908A3003808A2000A128A114B217F
:1000F8000A128A11831203132108AD002008AC00EC
:100108002D083102031D8A282C0830020318902874
:100118002D08B1002C08B000A801A9013308AB00D4
:100128003208AA0008002A09B4002B09B500B40A4D
:100138000319B50A32083407B60033080318330A1E
:100148003507B700013084000A128A11D9210A1232
:100158008A11A0000A128A11D9210A128A11A10053
:10016800033084000A128A11D9210A128A11A200C6
:100178000A128A11D9210A128A11A3000A128A11B5
:100188004B210A128A118312031337082102031D17
:10019800CF283608200203180800FF30A800FF30D7
:1001A800A900AC01AD013308AB003208AA00080071
:1001B800FB308312031390000F30970095016430D1
:1001C8008316031392000430831203139200FB304A
:1001D80083160313870081017F30860090308B00DF
:1001E80083124B08A1004A08A0004708F5004608FA
:1001F800F4006430F6000030F7000A128A118921F1
:100208000A128A11750883120313A3007408A20046
:100218000A128A114B210A128A1183120313200829
:100228009500283084004230BA000408BB000A3028
:10023800BC003A08840083130008BD00BA0A3B08D2
:1002480084003D088000BB0ABC0B1D290F08B300C1
:100258000E08B2000A128A1125200A128A114230A9
:100268008400831203132830BE000408BF000A303C
:10027800C0003E08840083130008C100BE0A3F087E
:10028800840041088000BF0AC00B3D29F42883126E
:100298000313A501A6012008210403198429A70135
:1002A800A70AA11B632901300310A00DA10DFF3E71
:1002B800031D58290130A4002408A7075529013037
:1002C8000310A50DA60DFF3E031D64292108230276
:1002D800031D702920082202031C79292008A20284
:1002E8002108031CA303A302251401300310A10C49
:1002F800A00CFF3E031D7A290130A702031D6329C4
:100308002608A1002508A0000800F801F901741CBE
:1003180093297608F8070318F90A7708F9070130CE
:100328000310F60DF70DFF3E031D9429013003104D
:10033800F50CF40CFF3E031D9B2974087504031D7E
:100348008B297908F5007808F400080080308606C3
:100358000130C2070318C30A0030C3078B107308A3
:10036800FF0072088A0071088400700E8300FE0E78
:100378007E0E09007E088A007F088200BE210A12CC
:100388008A118000840A04087D0603190034FF0AD4
:100398000319FE0AC229FF34FF3400340034003444
:1003A8000034073400348834133401308A000408D8
:0E03B800840A82070034083400340034103404
:02400E003B3F36
:00000001FF
