:060000000A128A11122809
:10000800FE00030EF2000408F3000A08F40083124D
:1000180003137F08F5000A128A11C8290A128A11E7
:10002800152883133130FD000230FE002E30FF000A
:10003800203084000A128A114322BB01BC01BD0191
:10004800BE01BF01C001C10183010A128A112C2817
:10005800833083160313810080308B0003308312B2
:10006800031390000F30970095010F309D009B01FE
:100078006430831603139200043083120313920032
:100088000530831603139F00FD308700FF3086007C
:10009800DF308500903083120313980024308316D4
:1000A800031398000C30990083120313861CE72869
:1000B80000300A128A1170210A128A1182308312C2
:1000C8000313B700DD30B600B60B6828B70B6828F5
:1000D80000300A128A1170210A128A1182308312A2
:1000E8000313B700DD30B600B60B7828B70B7828B5
:1000F80000300A128A1170210A128A118230831282
:100108000313B700DD30B600B60B8828B70B882874
:10011800CC280A128A11FD210A128A11C9288312D1
:10012800031321080A128A1118220A128A11C928EF
:100138008312031321080A128A1118220A128A113B
:100148000A128A11FD210A128A11C92800300A12DE
:100158008A1118220A128A1100300A128A11702193
:100168000A128A11831203138E018F01C9282008ED
:10017800313A03199C28033A0319AA28073A0319A4
:100188009328023A03198D28C92883120313C10141
:100198000A128A1160220A128A1183120313B60006
:1001A8003608B8000A3038060319BB283808B600E4
:1001B8004108203E84003608831380000130B600D1
:1001C8003608C107CC2800300A128A1170210A1299
:1001D8008A11823083120313B700DD30B600B60BE4
:1001E800F328B70BF32801300A128A1170210A127A
:1001F8008A11823083120313B700DD30B600B60BC4
:100208000329B70B032937290130B6003608C00087
:1002180039080A128A1118220A128A113729DF307E
:10022800B60036088B050A128A11FD210A128A11B6
:100238008312031339080A128A1118220A128A1122
:1002480037299B01BF01FE30B60036089005DF3024
:10025800B60036088B05BB01BC0100300A128A11B2
:1002680070210A128A110A128A1160220A128A114E
:1002780083120313B6003608BA000A128A116022E4
:100288000A128A1183120313B6003608B9007830AF
:100298003A06031908297230831203133A06031920
:1002A80013297330831203133A060319252974306E
:1002B800831203133A06031D37293908B600360896
:1002C800BD003D08B6003608BE008E018F0110142F
:1002D800FF3081008B16372983120313B1003108D0
:1002E800031D9E29B201B3013308803AFF00803014
:1002F8007F02031D8129643032020318080083122B
:1003080003138516C730F6008929F60B88298C292E
:100318008D29831203138512A630F600F60B922955
:100328000000013083120313B2070318B30A003028
:10033800B307782983120313B401B5013508803A4D
:10034800FF0081307F02031DAB29F430340203180B
:100358000800831203138516C730F600B329F60B7D
:10036800B229B629B729831203138512A630F600DD
:10037800F60BBC290000013083120313B4070318DD
:10038800B50A0030B507A2290130F1007108BE078F
:100398003E083D020318F129BE010F08BC000E08F3
:1003A800BB003F089B003B088E023C08031C8F03E0
:1003B8008F0240080319F1293B080A128A115822B2
:1003C8000A128A11831203133C080A128A1158224E
:1003D8000A128A1183120313C0010B117508FF005A
:1003E80074088A0073088400720E8300FE0E7E0E65
:1003F8000900831203130F08BC000E08BB003C0859
:100408000A128A1150220A128A11831203133B0816
:100418000A128A115022831203133B088E023C08E9
:10042800031C8F038F020800F6007608803A1B3EF3
:10043800031C232A6430831203139B000800F61F51
:10044800292A831203139B010800760883120313D9
:100458009B000800203420342034203420342034F9
:1004680020342034203420342034203420342034E4
:100478002034203400347E088A007F0882003F221E
:100488000A128A118000840A04087D0603190034C0
:10049800FF0A0319FE0A432AF600831203130C1EEF
:1004A800512A760899000800F000831203130C1EE5
:1004B800592A700899000800831203138C1E602AB9
:0404C8001A08080006
:02400E003A3F37
:00000001FF
