:060000000A128A11122809
:10000800FE00030EF1000408F2000A08F300831250
:1000180003137F08F4000A128A11A9290A128A1107
:10002800152883133130FD000230FE000230FF0036
:10003800203084000A128A111722BB01BC01BD01BD
:10004800F601F701F80183010A128A112B2885307D
:1000580083160313810080308B000330831203134F
:1000680090000F30970095010F309D009B01643080
:100078008316031392000430831203139200053091
:10008800831603139F00FD308700FF308600DF30A2
:1000980085009030831203139800243083160313CD
:1000A80098000C30990083120313861CF628003040
:1000B8000A128A1151210A128A11823083120313FB
:1000C800B700DD30B600B60B6728B70B67280030DD
:1000D8000A128A1151210A128A11823083120313DB
:1000E800B700DD30B600B60B7728B70B772800309D
:1000F8000A128A1151210A128A11823083120313BB
:10010800B700DD30B600B60B8728B70B8728DB2889
:100118000A128A11D3210A128A11D82883120313CA
:1001280021080A128A11EC210A128A11D82883128E
:10013800031321080A128A11EC210A128A110A12E1
:100148008A11D3210A128A11D82800300A128A117A
:10015800EC210A128A1100300A128A1151210A125E
:100168008A1100300A128A1151210A128A11D828DC
:10017800831203132008313A03199B28033A031901
:10018800A928073A03199228023A03198C28453AF4
:1001980003198C28013A0319A928043A031992284B
:1001A8000F3A03199B28D82883120313BD010A129A
:1001B8008A112C220A128A1183120313B6003608F8
:1001C800B8000A3038060319BC283808B6003D08BC
:1001D800203E84003608831380000130B6003608BC
:1001E800BD07DB2800300A128A1151210A128A1130
:1001F800823083120313B700DD30B600B60B022934
:10020800B70B022901300A128A1151210A128A11E8
:10021800823083120313B700DD30B600B60B122903
:10022800B70B122925293908B6003608BB0025293D
:100238003908B6003608BC008E018F0181018B1683
:1002480010140A128A112C220A128A11831203131B
:10025800B6003608BA000A128A112C220A128A112C
:1002680083120313B6003608B90078303A0603192A
:10027800172974303A0603191C29733083120313A3
:100288003A06031D25299B01DF30B60036088B0589
:10029800FE30B60036089005252983120313B100F5
:1002A8003108031D7F29B201B3013308803AFF00EA
:1002B80080307F02031D622964303202031808006F
:1002C800831203138516C730F5006A29F50B6929CF
:1002D8006D296E29831203138512A630F500F50BDC
:1002E80073290000013083120313B2070318B30AFD
:1002F8000030B307592983120313B401B501350837
:10030800803AFF0081307F02031D8C29F4303402CB
:1003180003180800831203138516C730F5009429C3
:10032800F50B932997299829831203138512A63070
:10033800F500F50B9D290000013083120313B40763
:100348000318B50A0030B50783293C08780203185A
:10035800B2290130F0007008F807C729F8010F0822
:10036800F7000E08F6000C1EB729760899000C1E37
:10037800BB297708990076088E027708031C8F033B
:100388008F023B089B000B117408FF0073088A005A
:1003980072088400710E8300FE0E7E0E090083121F
:1003A80003130F08F7000E08F60077080A128A11DF
:1003B80024220A128A1176080A128A11242276083F
:1003C800831203138E027708031C8F038F02080021
:1003D800F5007508803A1B3E031CF7296430831228
:1003E80003139B000800F51FFD29831203139B01CB
:1003F80008007508831203139B000800203420347A
:100408002034203420342034203420342034203444
:1004180020342034203420342034203400347E0822
:100428008A007F08820013220A128A118000840A37
:1004380004087D0603190034FF0A0319FE0A172A67
:10044800F500831203130C1E252A7508990008006D
:0C045800831203138C1E2C2A1A080800C3
:02400E003A3F37
:00000001FF
