:060000000A128A11122809
:10000800FE00030EF1000408F2000A08F300831250
:1000180003137F08F4000A128A11BE290A128A11F2
:10002800152883133130FD000230FE000E30FF002A
:10003800203084000A128A112322B901BA01BB01B7
:10004800BC01BD0183010A128A112A288330831654
:100058000313810080308B00033083120313900058
:100068000F30970095010F309D009B016430831677
:100078000313920004308312031392000530831691
:1000880003139F00FD308700FF308600DF308500B6
:1000980090308312031398002430831603139800BA
:1000A8000C30990083120313861CEF2800300A12C3
:1000B8008A1166210A128A118230F700DD30F600B3
:1000C800F60B6428F70B6428692800300A128A1195
:1000D80066210A128A118230F700DD30F600F60B2D
:1000E8007328F70B7328782800300A128A116621C2
:1000F8000A128A118230F700DD30F600F60B8228EA
:10010800F70B82288728D4280A128A11DD210A12BF
:100118008A11D1288312031321080A128A11F8219F
:100128000A128A11D1288312031321080A128A118C
:10013800F8210A128A110A128A11DD210A128A117B
:10014800D12800300A128A11F8210A128A111530B2
:10015800F8004B30F700BE30F600F60BB128F70B6D
:10016800B128F80BB128000000300A128A11662164
:100178000A128A11831203138E018F01D1282008D5
:10018800313A03199728033A0319A528073A03199E
:100198008E28023A03198828D12883120313BD0137
:1001A8000A128A1138220A128A11F6007608831276
:1001B8000313B6000A3036060319C3283608F600BA
:1001C8003D08203E84007608831380000130F60045
:1001D8007608BD07D42800300A128A1166210A124F
:1001E8008A118230F700DD30F600F60BF928F70B9C
:1001F800F928FE2801300A128A1166210A128A118A
:100208008230F700DD30F600F60B0829F70B0829D5
:100218000D292D2937089B0039080A128A11302226
:100228000A128A11831203133A080A128A11302219
:100238000A128A112D293708F6007608BB003B08F8
:10024800F6007608BC008E018F011014FF30810083
:100258008B168312031381010A128A1138220A129B
:100268008A11F600760883120313B8000A128A115D
:1002780038220A128A11F600760883120313B7008F
:100288007830380603190E297430831203133806A0
:1002980003191F297330831203133806031D2D29F0
:1002A800FE30F60076089005DF30F60076088B05FC
:1002B8009B01B901BA0100300A128A1166210A129B
:1002C8008A112D2983120313B1003108031D9429C3
:1002D800B201B3013308803AFF0080307F02031D6A
:1002E8007729643032020318080083120313851635
:1002F800C730F5007F29F50B7E29822983298312CF
:1003080003138512A630F500F50B8829000001308B
:1003180083120313B2070318B30A0030B3076E2918
:1003280083120313B401B5013508803AFF00813008
:100338007F02031DA129F430340203180800831238
:1003480003138516C730F500A929F50BA829AC2990
:10035800AD29831203138512A630F500F50BB229D7
:100368000000013083120313B4070318B50A0030E4
:10037800B50798290130F0007008BC073C083B021B
:100388000318D129BC010F08BA000E08B9003908B2
:100398008E023A08031C8F038F020B117408FF00AA
:1003A80073088A0072088400710E8300FE0E7E0EA8
:1003B8000900831203130F08BA000E08B9003A089F
:1003C8000A128A1130220A128A1183120313390879
:1003D8000A128A1130228312031339088E023A084E
:1003E800031C8F038F020800F5007508803A1B3E36
:1003F800031C032A6430831203139B000800F51FB3
:10040800092A831203139B0108007508831203133A
:100418009B00080020342034203420342034203439
:100428002034203420342034203420342034203424
:100438002034203400347E088A007F0882001F227E
:100448000A128A118000840A04087D060319003400
:10045800FF0A0319FE0A232AF500831203130C1E50
:10046800312A750899000800831203138C1E382A54
:040478001A08080056
:02400E003A3F37
:00000001FF
