:060000000A128A11122809
:10000800FE00030EF4000408F5000A08F600831247
:1000180003137F08F7000A128A11C8290A128A11E5
:10002800152883133130FD000230FE002F30FF0009
:10003800203084000A128A114422BD01BE01BF018A
:10004800C001C101F801F901FA0183010A128A11FC
:100058002D28833083160313810080308B000330F2
:100068008312031390000F30970095010F309D0005
:100078009B01643083160313920004308312031328
:1000880092000530831603139F00FD308700FF3070
:100098008600DF30850090308312031398002430E7
:1000A8008316031398000C30990083120313861CDF
:1000B800F72800300A128A116A210A128A1182303E
:1000C80083120313B800DD30B700B70B6928B80BEB
:1000D800692800300A128A116A210A128A118230AC
:1000E80083120313B800DD30B700B70B7928B80BBB
:1000F800792800300A128A116A210A128A1182307C
:1001080083120313B800DD30B700B70B8928B80B8A
:100118008928DC280A128A1104220A128A11D9288D
:100128008312031321080A128A111D220A128A1146
:10013800D9288312031321080A128A111D220A12D0
:100148008A110A128A1104220A128A11D928003047
:100158000A128A111D220A128A11153083120313FA
:10016800B9004B30B800BD30B700B70BB928B80B91
:10017800B928B90BB928C02800300A128A116A2197
:100188000A128A11831203138E018F01D9282008BD
:10019800313A03199D28033A0319AB28073A031982
:1001A8009428023A03198E28D92883120313C1010F
:1001B8000A128A1159220A128A1183120313B700EC
:1001C8003708BA000A303A060319CB283A08B700AC
:1001D8004108203E84003708831380000130B700AF
:1001E8003708C107DC2800300A128A116A210A126E
:1001F8008A11823083120313B800DD30B700B70BC1
:100208000329B80B032901300A128A116A210A123C
:100218008A11823083120313B800DD30B700B70BA0
:100228001329B80B132934293B08B7003708BF0036
:100238003D080A128A1151220A128A1183120313E5
:100248003E080A128A1151220A128A1134293B08DF
:10025800B7003708C0008E018F01101481018B167A
:100268000A128A1159220A128A1183120313B7003B
:100278003708BC000A128A1159220A128A118312FD
:100288000313B7003708BB0078303C060319182958
:100298007430831203133C0603192B29733083121D
:1002A80003133C06031D3429FE30B70037089005B8
:1002B800DF30B70037088B059B01BD01BE01003058
:1002C8000A128A116A210A128A1134298312031325
:1002D800B2003208031D9B29B301B4013408803AE7
:1002E800FF0080307F02031D7B296430330203182E
:1002F8000800831203138516C73083120313B10055
:100308008529B10B84298829831203138512A53006
:1003180083120313B100B10B8F2992290130831284
:100328000313B3070318B40A0030B4077229831201
:100338000313B501B6013608803AFF0081307F0209
:10034800031DA829F430350203180800831203138B
:100358008516C73083120313B100B229B10BB12936
:10036800B529831203138512A53083120313B10034
:10037800B10BBC29BF29013083120313B507031839
:10038800B60A0030B6079F290130F0007008FA0756
:100398007A0840020318DE29FA010F08BE000E0889
:1003A800BD003F089B003D088E023E08031C8F03DA
:1003B8008F02F8294008F0000310700C7A06031D1C
:1003C800F8293E08F1003D08F0000310F10CF00C8C
:1003D8000E087007F2000F0803180F0A7107F300E0
:1003E8007208BD007308BE000B117708FF0076087D
:1003F8008A0075088400740E8300FE0E7E0E0900C4
:10040800831203130F08F9000E08F80079080A127E
:100418008A1151220A128A1178080A128A11512265
:100428007808831203138E027908031C8F038F0246
:10043800080083120313B1003108803A1B3E031CE5
:10044800282A64309B000800B11F2C2A9B01080051
:1004580031089B0008002034203420342034203414
:1004680020342034203420342034203420342034E4
:1004780020342034203400347E088A007F0882002B
:1004880040220A128A118000840A04087D06031992
:100498000034FF0A0319FE0A442A83120313B10029
:1004A8000C1E542A310899000800831203138C1E6D
:0604B800592A1A08080091
:02400E003A3F37
:00000001FF
