:0400000007EF00F016
:0A0008004982D5ED05F0D9EF07F0AD
:100800000001000A006400E8031027004B000040CC
:100810004B4C0068014C41422E434F4E542E4449EC
:10082000474954414C0053656A612042656D2D561D
:10083000696E646F210070776D3A20253364252539
:10084000007270733A202533750025750000270E5D
:10085000306E000E316E3BD1250E3918D8B404D05D
:100860003950F0EC07F033D1000E386E000E376EC1
:10087000000E346E25C0F6FF26C0F7FF0800F550C5
:1008800018EC08F0D8A06CD0000E386E000E376E51
:1008900037C013F038C014F0000E166E0A0E156E35
:1008A00005EC08F013C037F014C038F0D00E296EF4
:1008B000FF0E2A6E25C0F6FF26C0F7FF0800F55090
:1008C0002B6E2C6A29502B262A502C222B5037268F
:1008D0002C503822254A262A25C0F6FF26C0F7FFCD
:1008E0000800F55018EC08F0D8A03AD0D1D737500E
:1008F000325C38503358D8B005D03250375E335060
:10090000385A08D0000E386E000E376E03D0200E15
:10091000F0EC07F03706D8A038063728F8E1382879
:10092000D8B40AD0F4D72DC0D9FF2EC0DAFFDF50DB
:10093000F0EC07F02D4A2E2A3206D8A033063228D2
:10094000F2E13328D8B4C3D0EED7390E2D6E000EA5
:100950002E6E000E336E010E326EC9D7348C17D056
:1009600025C0F6FF26C0F7FF254A262A0800F5CF46
:1009700039F03950000AD8B41200640AD8B407D04C
:100980000D0AD8B404D01C0AD8B4E8D7DED734BCDA
:1009900015D030C0D9FF31C0DAFFDECF35F0DDCF62
:1009A00036F0020E3026000E312236AE13D0030E82
:1009B0003412356C361ED8B0362A0CD030C0D9FF70
:1009C00031C0DAFFDECF35F0DDCF36F0020E302653
:1009D000000E3122010E396E050E3918D8B412D02E
:1009E0003950020D010EF324F66E080EF420F76E56
:1009F0000900F550355C0900F5503658D8A002D0F2
:100A0000392AEAD737503810D8B409D034C029F081
:100A1000030E2916D8B403D03706D8A03806800EA6
:100A200039BE7F0E296E3750395C3850800A2958FC
:100A3000D8B007D03950375E000E39BEFF0E385A95
:100A400004D0000E386E000E376E37503810D8B410
:100A50000AD0200EF0EC07F03706D8A03806375041
:100A60003810D8A4F6D734C029F0030E2916D8B40C
:100A700003D02D0EF0EC07F039C02FF024D02F500A
:100A8000020D010EF324F66E080EF420F76E090035
:100A9000F5CF1BF00A00F5CF1CF035C019F036C0B9
:100AA0001AF029EC07F019C020F01AC021F0000E4E
:100AB000236E0A0E226E9DEC07F02050300F396E27
:100AC0003950F0EC07F02F062F28D8A4D8D725C02E
:100AD000F6FF26C0F7FF254A262A0800F5CF39F091
:100AE0003950D8B41200B8D63AD0FFEC06F054D042
:100AF00020EE01F03D50D9263E50DA22DF5035EC91
:100B000008F04AD0FFEC06F020EE01F03D50D92667
:100B10003E50DA22DF5035EC08F03ED052EC07F0C0
:100B20003BD020EE01F03D50D9263E50DA22DF5076
:100B300035EC08F031D052EC07F020EE01F03D50DA
:100B4000D9263E50DA22DF5035EC08F025D0000ED1
:100B500035EC08F0D3EC06F0D3EC06F01DD03DC028
:100B6000D9FF3EC0DAFFDF50310AD8B4CBD7030A31
:100B7000D8B4EDD7070AD8B4BBD7020AD8B4B5D7D2
:100B8000450AD8B4CBD7010AD8B4E1D7040AD8B4FF
:100B9000C8D70F0AD8B4CFD746C03AF047C03BF009
:100BA000BECF3CF0BEEC07F012000600FACF01F019
:100BB000FBCF02F0E9CF03F0EACF04F0E1CF05F07C
:100BC000E2CF06F0D9CF07F0DACF08F0F3CF09F083
:100BD000F4CF0AF0F6CF0BF0F7CF0CF0F8CF0DF012
:100BE000F5CF0EF049C00FF04AC010F04BC011F025
:100BF0004CC012F0444A452AF29212C04CF011C087
:100C00004BF010C04AF00FC049F00EC0F5FF0DC008
:100C1000F8FF0CC0F7FF0BC0F6FF0AC0F4FF09C0D5
:100C2000F3FF08C0DAFF07C0D9FF06C0E2FF05C026
:100C3000E1FF04C0EAFF03C0E9FF02C0FBFF01C0FF
:100C4000FAFF499211000B0ECD6E0F0EBD6E000E15
:100C5000BE6E640ECB6E040ECA6EFB0E946ED5682B
:100C6000900EF26E000EF16E7F0E936E900EF26E8D
:100C7000000E956EF80E966ECF0E926E900EAB6EC5
:100C8000240EAC6E400EAF6E60EC06F0D3EC06F0B6
:100C9000D3EC06F0D3EC06F0000E0001676F000EF7
:100CA000666F600E3F6E000E406E66C041F067C01A
:100CB00042F078EC07F03FC066F040C067F0F1D733
:100CC00048808492300E27EC08F0210E3A6E760EA2
:100CD000E82EFED73A2EFCD700D0300E27EC08F0D5
:100CE000A60EE82EFED700D0300E27EC08F0380E06
:100CF00027EC08F0010E27EC08F00D0E3A6EFC0E02
:100D0000E82EFED73A2EFCD70C0E27EC08F0060E84
:100D100027EC08F0800E27EC08F0150E256E080E63
:100D2000266E27EC04F0C00E27EC08F0260E256E88
:100D3000080E266E27EC04F0120020502110D8B4C3
:100D400023D020C013F021C014F0130EF66E080E4D
:100D5000F76E0900F5CF15F00A00F5CF16F005EC97
:100D600008F013C019F014C01AF024C01BF025C0FD
:100D70001CF029EC07F019C022F01AC023F0000E75
:100D8000216E000E206E06D020682168000E236EB2
:100D9000000E226E20C020F021C021F022C022F0DF
:100DA00023C023F01200030E146E8A0E136E560E2B
:100DB000E82EFED7132EFCD7142EFAD7000E166E8F
:100DC000000E156E16BE06D0165018E1640E155CA6
:100DD000D8B01200808A070E136E7D0EE82EFED763
:100DE000132EFCD700F0809A040E136E3E0EE82EF0
:100DF000FED7132EFCD7154A162AE4D712004890C6
:100E00004A0E256E080E266ED6CF27F0D7CF28F0D3
:100E100027EC04F0000ED76E000ED66E44C020F012
:100E200045C021F046C022F047C023F0CECF24F0C9
:100E3000CFCF25F09DEC06F020C044F021C045F056
:100E400022C046F023C047F0000ECF6E000ECE6EDB
:100E50001200000E1F6E000E1E6E1B501C10D8B428
:100E60001CD0010E1D6E04D0D8901B361C361D2AD6
:100E70001CAEFAD7D8901E361F361B50195C1C507A
:100E80001A58D8A005D01B50195E1C501A5A1E8043
:100E9000D8901C321B321D2EEDD71EC019F01FC07A
:100EA0001AF01200489044C020F045C021F046C01E
:100EB00022F047C023F0CECF24F0CFCF25F09DEC19
:100EC00006F020C044F021C045F022C046F023C007
:100ED00047F04A0E256E080E266E46C027F047C022
:100EE00028F027EC04F0000ECF6E000ECE6E12003C
:100EF00041503F24D96E42504020DA6E39EC08F060
:100F0000DF6E41503F24D96E42504020DA6E0A0E07
:100F1000DE18D8A40BD0000E426E000E416E3FC00A
:100F20003DF040C03EF074EC05F002D0414A422A48
:100F300041C03FF042C040F0120022502310D8B40C
:100F400018D0010E246E04D0D89022362336242ADD
:100F500023AEFAD72250205C23502158D8A004D0C9
:100F60002250205E2350215AD89023322232242E40
:100F7000F1D720C020F021C021F012004880C00E1F
:100F800027EC08F0410E256E080E266E3AC027F0B9
:100F90003BC028F027EC04F0C80E27EC08F0360E12
:100FA000256E080E266E3CC027F0286A27EC04F058
:100FB00012007A0EF66E100EF76E000EF86E00EE4E
:100FC00044F010EE04F00900F5CFEEFFE550E150DB
:100FD000FAE149904992000EF86E000123EF06F005
:100FE000136E48A00DD0848013C083FF848400D08A
:100FF00000D000F08494530EE82EFED700F01200CB
:101000009EA8FED713C0ADFF120013501502F3CFF8
:1010100017F0F4CF18F013501602F350182614509E
:101020001502F350182617C013F018C014F0120060
:10103000156E000E146E3A0E156005D02F0E156455
:1010400002D0010E146E14C013F013301200136E90
:10105000849013C083FF848400D000D000F0849477
:10106000530EE82EFED700F01200136E13C0BEFF21
:0E10700012009EAAFED7AE501200FFFF000035
:020000040020DA
:08000000FFFFFFFFFFFFFFFF00
:020000040030CA
:0E000000040E191EFF8381FF0FC00FE00F409A
:00000001FF
