:02000000D82FF7
:100D420083120F08F1000E08F0007108D626700811
:100D5200D626700883128E027108031C8F038F023D
:100D6200080020342034203420342034203420342D
:100D720020342034203420342034203420342034D1
:100D820020340034F4007408803A1B3E031CCD2E3C
:100D92006430831293000800F41FD22E8312930151
:100DA20008007408831293000800F5007508F40027
:100DB2007408F20005102230F400F40BDE2EF50C5C
:100DC200030885002130F400F40BE52E0000F50C39
:100DD200030885002130F400F40BED2E0000F50C21
:100DE200030885002130F400F40BF52E0000F50C09
:100DF200030885002130F400F40BFD2E0000F50CF1
:100E0200030885002130F400F40B052F0000F50CD7
:100E1200030885002130F400F40B0D2F0000F50CBF
:100E2200030885002130F400F40B152F0000F50CA7
:100E3200030885002130F400F40B1D2F0000051477
:100E42002230F400F40B232F0800F50183128518D9
:100E5200272F2230F400F40B2C2F1130F400F40B66
:100E6200302FF50C8518F5172130F400F40B372FCD
:100E72000000F50C8518F5172130F400F40B3F2F14
:100E82000000F50C8518F5172130F400F40B472FFC
:100E92000000F50C8518F5172130F400F40B4F2FE4
:100EA2000000F50C8518F5172130F400F40B572FCC
:100EB2000000F50C8518F5172130F400F40B5F2FB4
:100EC2000000F50C8518F5172130F400F40B672F9C
:100ED2000000F50C8518F5172130F400F40B6F2F84
:100EE20000001130F400F40B742F750808007730FD
:100EF20083168F0007308100033083129000643024
:100F0200831692000430831292000C309500073051
:100F1200990083169F0183129F0122308316950048
:100F22002A30850083128E018F0193010514C32F8D
:100F3200A126C22F83122108C326C22F83122108A1
:100F4200C326A126C22F0030C326C22F8312200837
:100F5200313A03199F2F033A0319A42F073A0319B1
:100F62009B2F023A0319992F453A0319992F013AF7
:100F72000319A42F043A03199B2F0F3A03199F2F29
:100F8200C22FF3012627F6007608F7000A3077060B
:100F92000319A72F7708F6007308203E840076080D
:100FA200831380000130F6007608F307C32FB226C0
:100FB200A000B326A100B426A200B526A300B6263F
:100FC200A400B726A500B826A600B926A700BA260F
:100FD200A800BB26A900BC26AA00BD26AB00BE26DF
:100FE200AC00BF26AD00C026AE00C126AF00C226AF
:0E0FF200B000F001F101F201F3018301782F4C
:02400E00D4F0EC
:00000001FF
