:060000000A128A11122809
:10000800FE00030EF6000408F7000A08F800831241
:1000180003137F08F9000A128A11D0290A128A11DB
:10002800152883133130FD000230FE005330FF00E5
:10003800203084000A128A116822BD01BE01BF0166
:10004800C001C101C201C301C401C501FA01FB011C
:1000580083010A128A113028833083160313810022
:1000680080308B0003308312031390000F30970009
:1000780095010F309D009B01643083160313920095
:1000880004308312031392000530831603139F0074
:10009800FD308700FF308600DF3085009030831206
:1000A8000313980024308316031398000C3099002A
:1000B80083120313861CFA2800300A128A1172214F
:1000C8000A128A11823083120313B800DD30B70098
:1000D800B70B6C28B80B6C2800300A128A117221F1
:1000E8000A128A11823083120313B800DD30B70078
:1000F800B70B7C28B80B7C2800300A128A117221B1
:100108000A128A11823083120313B800DD30B70057
:10011800B70B8C28B80B8C28DF280A128A112822E2
:100128000A128A11DC288312031321080A128A1181
:1001380041220A128A11DC288312031321080A12A9
:100148008A1141220A128A110A128A1128220A12D5
:100158008A11DC2800300A128A1141220A128A11F7
:10016800153083120313B9004B30B800BD30B70007
:10017800B70BBC28B80BBC28B90BBC28C328003067
:100188000A128A1172210A128A11831203138E012C
:100198008F01DC282008313A0319A028033A0319F3
:1001A800AE28073A03199728023A03199128DC2840
:1001B80083120313C5010A128A117D220A128A11B9
:1001C80083120313B7003708BA000A303A06031936
:1001D800CE283A08B7004508203E84003708831324
:1001E80080000130B7003708C507DF2800300A1241
:1001F8008A1172210A128A11823083120313B800FD
:10020800DD30B700B70B0629B80B062901300A12F2
:100218008A1172210A128A11823083120313B800DC
:10022800DD30B700B70B1629B80B16293E293B0855
:100238009B0041080A128A1175220A128A11831238
:10024800031342080A128A1175220A128A113E29DA
:100258003B08B7003708C3004308B7003708C40095
:10026800BF01C001BD01BE018E018F011014FE3017
:1002780081008B160A128A117D220A128A118312B2
:100288000313B7003708BC000A128A117D220A122C
:100298008A1183120313B7003708BB0078303C0675
:1002A80003191B297430831203133C0603192C29E4
:1002B80073303C06031D3E29FE30B7003708900511
:1002C800DF30B70037088B059B01C101C201003040
:1002D8000A128A1172210A128A113E298312031303
:1002E800B2003208031DA329B301B4013408803ACF
:1002F800FF0080307F02031D832964303302031816
:100308000800831203138516C73083120313B10044
:100318008D29B10B8C299029831203138512A530DE
:1003280083120313B100B10B97299A290130831264
:100338000313B3070318B40A0030B4077A298312E9
:100348000313B501B6013608803AFF0081307F02F9
:10035800031DB029F4303502031808008312031373
:100368008516C73083120313B100BA29B10BB92916
:10037800BD29831203138512A53083120313B1001C
:10038800B10BC429C729013083120313B507031819
:10039800B60A0030B607A7290130F0007008C40774
:1003A800440843020318E429C4010F08C2000E08D8
:1003B800C10041088E024208031C8F038F02182ACD
:1003C8003F083D07F00040080318400A3E07F100C7
:1003D800F009F109F00A0319F10A0E087007F20092
:1003E8000F0803180F0A7107F30041087207F40099
:1003F80042080318420A7307F5007408C10075081B
:10040800C2003D09F0003E09F100F00A0319F10AA3
:100418000E087007F2000F0803180F0A7107F3009F
:100428007208BF007308C0000F08BE000E08BD00A8
:100438000B117908FF0078088A0077088400760E87
:100448008300FE0E7E0E0900831203130F08FB00C3
:100458000E08FA007B080A128A1175220A128A11FC
:100468007A080A128A1175227A08831203138E02F7
:100478007B08031C8F038F02080083120313B1004B
:100488003108803A1B3E031C4C2A64309B0008004C
:10049800B11F502A9B01080031089B000800203436
:1004A80020342034203420342034203420342034A4
:1004B80020342034203420342034203420340034B4
:1004C8007E088A007F08820064220A128A1180004E
:1004D800840A04087D0603190034FF0A0319FE0A7A
:1004E800682A83120313B1000C1E782A3108990078
:0E04F8000800831203138C1E7D2A1A080800C8
:02400E003A3F37
:00000001FF
