:0400000007EF00F016
:0A0008004D8291ED06F0AEEF07F017
:100800000001000A006400E803102748E8010040E6
:10081000420F004C41422E434F4E542E444947490B
:1008200054414C00544D5230204F564552464C4F87
:1008300057203D500053656A612042656D2D566911
:100840006E646F210070776D202533642525007458
:100850006D72202533752000286E756C6C2900257B
:0308600073000022
:10086400210E286E000E296E7DD1250E3318D8B4C2
:1008740004D0335069EC07F075D1000E326E000ECF
:10088400316E000E2C6E1FC0F6FF20C0F7FF08006B
:10089400F55006EC08F0D8A0ABD0000E326E000E76
:1008A400316E31C013F032C014F0000E166E0A0E11
:1008B400156EE2EC07F013C031F014C032F0D00E24
:1008C400236EFF0E246E1FC0F6FF20C0F7FF080042
:1008D400F550256E266A23502526245026222550BD
:1008E4003126265032221F4A202A1FC0F6FF20C07C
:1008F400F7FF0800F55006EC08F0D8A079D0D1D75E
:1009040028C0D9FF29C0DAFFDECF2AF0DDCF2BF0D3
:10091400020E2826000E29222A502B10D8A404D017
:10092400580E2A6E080E2B6E000E306E000E2F6EBF
:1009340002D02F4A302A2F502A24236E30502B20E5
:10094400246E23C0F6FF24C0F7FFF86A070EF7648D
:1009540003D00800F55005D0F6CFE9FFF7CFEAFF42
:10096400EF500009D8A4E5D731502F5C32503058ED
:10097400D8B005D02F50315E3050325A08D0000E16
:10098400326E000E316E03D0200E69EC07F0310692
:10099400D8A032063128F8E13228D8B415D0F4D7DB
:1009A4002AC0F6FF2BC0F7FFF86A070EF76403D0DE
:1009B4000800F55005D0F6CFE9FFF7CFEAFFEF5076
:1009C40069EC07F02A4A2B2A2F06D8A030062F28D4
:1009D400E7E13028D8B4C6D0E3D7330E2A6E000E30
:1009E4002B6E000E306E010E2F6EBED72C8C1AD0DB
:1009F4001FC0F6FF20C0F7FF1F4A202A0800F5CFCA
:100A040033F03350000AD8B41200640AD8B40AD0C0
:100A14000D0AD8B407D01A0AD8B472D7060AD8B4C3
:100A2400E5D7DBD72CBC15D028C0D9FF29C0DAFF05
:100A3400DECF2DF0DDCF2EF0020E2826000E292267
:100A44002EAE13D0030E2C122D6C2E1ED8B02E2ACF
:100A54000CD028C0D9FF29C0DAFFDECF2DF0DDCFBE
:100A64002EF0020E2826000E2922010E336E050EEA
:100A74003318D8B412D03350020D010EF324F66E9D
:100A8400080EF420F76E0900F5502D5C0900F550AE
:100A94002E58D8A002D0332AEAD731503210D8B415
:100AA40009D02CC023F0030E2316D8B403D031068A
:100AB400D8A03206800E33BE7F0E236E3150335CD5
:100AC4003250800A2358D8B007D03350315E000E1C
:100AD40033BEFF0E325A04D0000E326E000E316E59
:100AE40031503210D8B40AD0200E69EC07F0310628
:100AF400D8A0320631503210D8A4F6D72CC023F037
:100B0400030E2316D8B403D02D0E69EC07F033C0BE
:100B140027F024D02750020D010EF324F66E080EA0
:100B2400F420F76E0900F5CF15F00A00F5CF16F0A2
:100B34002DC013F02EC014F01CEC07F013C01AF0F3
:100B440014C01BF0000E1D6E0A0E1C6E8DEC07F017
:100B54001A50300F336E335069EC07F027062728FC
:100B6400D8A4D8D71FC0F6FF20C0F7FF1F4A202AF9
:100B74000800F5CF33F03350D8B4120076D6F10E16
:100B8400CD6E0F0EBA6E000EBB6E640ECB6E040EED
:100B9400CA6ED568070EC26E0D0EC16E000EC06E11
:100BA4009268000E936EC00E946E900EAB6E240E7F
:100BB400AC6E0C0EAF6EE3EC06F0080E366E9D0EB6
:100BC400356E060EE82EFED7352EFCD7362EFAD714
:100BD400C8EC07F0820E356EDE0EE82EFED7352EF9
:100BE400FCD7C8EC07F0820E356EDE0EE82EFED779
:100BF400352EFCD7C8EC07F0820E356EDE0EE82EDB
:100C0400FED7352EFCD7000ED76E000ED66E000E22
:100C1400CF6E000ECE6EA00EF26EF2949E809EA059
:100C240035D0800E45EC07F03804D8A40BD05F0E05
:100C34001F6E080E206E390E216E000E226E32ECED
:100C440004F009D03850D8A406D0240E1F6E080E24
:100C5400206E32EC04F0C00E45EC07F04F0E1F6E10
:100C6400080E206E4BC021F0226A32EC04F0C80E4C
:100C740045EC07F0450E1F6E080E206EBB50216E2A
:100C8400226A21BE220632EC04F09E9031EC08F078
:100C9400376E0A0E3718D8A436D0010E4A6E17D014
:100CA40015EC08F02DD03A50F5EC07F029D03A5065
:100CB400F5EC07F015EC08F023D0000E4A6E000E98
:100CC400F5EC07F0C8EC07F0C8EC07F019D0395080
:100CD400310AD8B4ECD7030AD8B4EFD7070AD8B48A
:100CE400E2D7020AD8B4DCD7450AD8B4D9D7010A66
:100CF400D8B4E3D7040AD8B4D6D70F0AD8B4D7D710
:100D0400000E4C6E8CD74C50010D390EF324D96E65
:100D1400000EF420DA6E37C0DFFF4C2A80D70600BD
:100D2400FACF01F0FBCF02F0E9CF03F0EACF04F0F1
:100D3400E1CF05F0E2CF06F0D9CF07F0DACF08F023
:100D4400F3CF09F0F4CF0AF0F6CF0BF0F7CF0CF0A5
:100D5400F8CF0DF0F5CF0EF04DC00FF04EC010F0EF
:100D64004FC011F050C012F04A50D8B403D08A8C4E
:100D7400000E386EF29412C050F011C04FF010C043
:100D84004EF00FC04DF00EC0F5FF0DC0F8FF0CC0C3
:100D9400F7FF0BC0F6FF0AC0F4FF09C0F3FF08C059
:100DA400DAFF07C0D9FF06C0E2FF05C0E1FF04C0B7
:100DB400EAFF03C0E9FF02C0FBFF01C0FAFF4D9246
:100DC40011001A0E346EF80EE82EFED7342EFCD71E
:100DD40000D0020E45EC07F0070E346E7D0EE82EAF
:100DE400FED7342EFCD700F0280E45EC07F0010E98
:100DF40045EC07F0030E346E980EE82EFED7342E21
:100E0400FCD70C0E45EC07F0060E45EC07F0800EFF
:100E140045EC07F0130E1F6E080E206E32EC04F042
:100E2400C00E45EC07F0350E1F6E080E206E32EC36
:100E340004F01200000E186E000E176E15501610F6
:100E4400D8B41CD0010E196E04D0D89015361636BD
:100E5400192A16AEFAD7D890173618361550135CDF
:100E640016501458D8A005D01550135E1650145AB5
:100E74001780D89016321532192EEDD717C013F0FB
:100E840018C014F01200146E000EBA6E8A9A14C0C0
:100E940013F0133A0F0E13168A501318F00B13188D
:100EA4008A6E8A8800F08A98100EE82EFED700D049
:100EB4008A501418F00B14188A6E8A8800F08A98E5
:100EC400100EE82EFED700D00F0EBA6E1200146E6C
:100ED400000EBA6E8A8A14C013F0133A0F0E13165A
:100EE4008A501318F00B13188A6E8A8800F08A98B7
:100EF400100EE82EFED700D08A501418F00B1418E8
:100F04008A6E8A8800F08A98100EE82EFED700D0E8
:100F14000F0EBA6E12001C501D10D8B418D0010E5A
:100F24001E6E04D0D8901C361D361E2A1DAEFAD76C
:100F34001C501A5C1D501B58D8A004D01C501A5EBB
:100F44001D501B5AD8901D321C321E2EF1D71AC0C8
:100F54001AF01BC01BF01200440EF66E100EF76E52
:100F6400000EF86E00EE38F010EE12F00900F5CF26
:100F7400EEFFE550E150FAE14C6A4B6A4A6A4D9043
:100F84004D92000EF86E0001C1EF05F0000E146ED4
:100F9400000E136E14BE06D0145011E1640E135CDF
:100FA400D8B012008A8CC80E00D0E82EFDD78A9CD7
:100FB400A60EE82EFED700D0134A142AEBD712004F
:100FC40013501502F3CF17F0F4CF18F01350160294
:100FD400F350182614501502F350182617C013F0B6
:100FE40018C014F01200136E1350800A1B0FD8A0FF
:100FF40003D0640EBB6E120013AE03D0000EBB6EA2
:10100400120013C0BBFF1200156E000E146E3A0ED0
:10101400156005D02F0E156402D0010E146E14C095
:1010240013F013301200D6CF4BF0000E2BEC08F067
:101034004B502BEC08F04B50D65E000ED75A1200E2
:1010440001202020202020202020202020202020BB
:101054002000136E9EA8FED713C0ADFF12009EAAF7
:06106400FED7AE501200A1
:020000040020DA
:08000000FFFFFFFFFFFFFFFF00
:020000040030CA
:0E000000000C191EFF8281FF0FC00FE00F40A1
:00000001FF
