:060000000A128A11122809
:10000800FE00030EF2000408F3000A08F40083124D
:1000180003137F08F5000A128A11C0290A128A11EF
:10002800152883133130FD000230FE002630FF0012
:10003800203084000A128A113B22BB01BC01BD0199
:10004800BE01BF01C001C10183010A128A112C2817
:10005800833083160313810080308B0003308312B2
:10006800031390000F30970095010F309D009B01FE
:100078006430831603139200043083120313920032
:100088000530831603139F00FD308700FF3086007C
:10009800DF308500903083120313980024308316D4
:1000A800031398000C30990083120313861CE72869
:1000B80000300A128A1168210A128A1182308312CA
:1000C8000313B700DD30B600B60B6828B70B6828F5
:1000D80000300A128A1168210A128A1182308312AA
:1000E8000313B700DD30B600B60B7828B70B7828B5
:1000F80000300A128A1168210A128A11823083128A
:100108000313B700DD30B600B60B8828B70B882874
:10011800CC280A128A11F5210A128A11C9288312D9
:10012800031321080A128A1110220A128A11C928F7
:100138008312031321080A128A1110220A128A1143
:100148000A128A11F5210A128A11C92800300A12E6
:100158008A1110220A128A1100300A128A116821A3
:100168000A128A11831203138E018F01C9282008ED
:10017800313A03199C28033A0319AA28073A0319A4
:100188009328023A03198D28C92883120313C10141
:100198000A128A1158220A128A1183120313B6000E
:1001A8003608B8000A3038060319BB283808B600E4
:1001B8004108203E84003608831380000130B600D1
:1001C8003608C107CC2800300A128A1168210A12A1
:1001D8008A11823083120313B700DD30B600B60BE4
:1001E800F328B70BF32801300A128A1168210A1282
:1001F8008A11823083120313B700DD30B600B60BC4
:100208000329B70B032931290130B6003608C0008D
:100218003908B6003608BF0031290A128A11F521BB
:100228000A128A118312031339080A128A1110223A
:100238000A128A1131299B01BF01FE30B600360827
:100248009005DF30B60036088B05BB01BC010030D5
:100258000A128A1168210A128A110A128A1158226E
:100268000A128A1183120313B6003608BA000A125A
:100278008A1158220A128A1183120313B60036080B
:10028800B90078303A060319082972303A0603197A
:1002980011297330831203133A0603191F29743086
:1002A800831203133A06031D31293908B6003608AC
:1002B800BD003D08B6003608BE008E018F0110143F
:1002C800FF3081008B16312983120313B1003108E6
:1002D800031D9629B201B3013308803AFF0080302C
:1002E8007F02031D79296430320203180800831243
:1002F80003138516C730F6008129F60B8029842957
:100308008529831203138512A630F600F60B8A2975
:100318000000013083120313B2070318B30A003038
:10032800B307702983120313B401B5013508803A65
:10033800FF0081307F02031DA329F4303402031823
:100348000800831203138516C730F600AB29F60B95
:10035800AA29AE29AF29831203138512A630F60005
:10036800F60BB4290000013083120313B4070318F5
:10037800B50A0030B5079A290130F1007108BE07A7
:100388003E083D020318E929BE010F08BC000E080B
:10039800BB003F089B003B088E023C08031C8F03F0
:1003A8008F0240080319E9293B080A128A115022D2
:1003B8000A128A11831203133C080A128A11502266
:1003C8000A128A1183120313C0010B117508FF006A
:1003D80074088A0073088400720E8300FE0E7E0E75
:1003E8000900831203130F08BC000E08BB003C0869
:1003F8000A128A1148220A128A11831203133B082F
:100408000A128A114822831203133B088E023C0801
:10041800031C8F038F020800F6007608803A1B3E03
:10042800031C1B2A6430831203139B000800F61F69
:10043800212A831203139B010800760883120313F1
:100448009B00080020342034203420342034203409
:1004580020342034203420342034203420342034F4
:100468002034203400347E088A007F088200372236
:100478000A128A118000840A04087D0603190034D0
:10048800FF0A0319FE0A3B2AF600831203130C1E07
:10049800492A760899000800F000831203130C1EFD
:1004A800512A700899000800831203138C1E582AD9
:0404B8001A08080016
:02400E003A3F37
:00000001FF
