:060000000A128A11122809
:10000800FE00030EF0000408F1000A08F200831253
:1000180003137F08F3000A128A11022F0A128A11A9
:10002800152883135930FD000730FE003530FF00D6
:100038004F3084000A128A111A2783010A128A1182
:100048004F2B83120313BD002E30B2003208B500C7
:10005800013083120313BD07FF303D0784000A12E5
:100068008A1100260A128A11B2003208C00040081C
:1000780003190800253040060319492840080A12C8
:100088008A11B5240A128A112C2883120313BE017F
:10009800BF01B8013D0884000A128A1100260A121D
:1000A8008A110A128A1127270A128A11031CE728C3
:1000B80083120313BE01BF010A30F4000030F500BB
:1000C800831203133F08F7003E08F6000A128A114C
:1000D800E1260A128A11750883120313BF007408F7
:1000E800BE003D0884000A128A1100260A128A11ED
:1000F800D03EB200FF3003180030B3003208BE070C
:100108000318BF0A3308BF070130B2003208BD0721
:100118003D0884000A128A1100260A128A110A125E
:100128008A1127270A128A11031CE72860288312DC
:1001380003133F083A02031DA3283E083902031897
:10014800AC283908BE023A08031CBF03BF02AE2818
:10015800BE01BF01FF3083120313BE070318BF0A95
:10016800FF30BF073E0A03193F0A0319D128203080
:100178000A128A11B5240A128A11AE283608840098
:10018800831300080A128A11B5240A128A11013051
:1001980083120313B2003208B6070130B9020030E7
:1001A800031CBA03BA02390A031DC2283A0A031902
:1001B8002C28C2284030B2003208B6000130B900FD
:1001C8000030BA009B28013083120313BD07FF30AB
:1001D8003D0784000A128A1100260A128A11C000FB
:1001E800003A0319D529643A0319FE280D3A031970
:1001F800FE28DE28831203133508840083130008C1
:10020800BB00840A0008BC000230B2003208B507FF
:10021800BC1F17290330B2003208B804BB09BC0957
:10022800BB0A0319BC0AC001C00A053040060319FD
:100238003E294008B2003207013E84000A128A11A2
:1002480000260A128A11B3000A128A1100260A121D
:100258008A11B40034083C02031D342933083B02D8
:10026800031C3E290130B2003208C00705304006A1
:10027800031D1D293E083F0403194C29380803397A
:1002880003194C29FF30BE070318BF0AFF30BF0708
:100298004008B200B301B21BB3033308803AB4007C
:1002A8003F08803A3402031D5B293E0832020318D6
:1002B8006B29831203134008B200B301B21BB303C6
:1002C8003208BE023308031CBF03BF026F29831222
:1002D8000313BE01BF013E083F04031985292030DE
:1002E8000A128A11B5240A128A11FF3083120313E5
:1002F800BE070318BF0AFF30BF073E083F04031DAF
:1003080073293808033903198F292D300A128A11E5
:10031800B5240A128A11831203134008B200320866
:10032800B700FF3083120313B2003208B707370A49
:1003380003192C280A30A8000030A9003708B20099
:100348003207013E84000A128A1100260A128A1115
:10035800A0000A128A1100260A128A11A1003C087C
:10036800A3003B08A2000A128A1148260A128A1121
:10037800831203132108AB002008AA000A128A116D
:1003880086260A128A11831203132808303EB30006
:100398003308C00040080A128A11B5240A128A11CB
:1003A8009529080030300A128A1120250A128A116C
:1003B800003083120313A3000030A2000030A10014
:1003C800C830A0000B3084000A128A1100260A12D5
:1003D8008A11A4000A128A1100260A128A11A5009D
:1003E8000A128A1100260A128A11A6000A128A1114
:1003F80000260A128A11A7000A128A118B250A12EE
:100408008A11831203132008AD002108AE002208C8
:10041800AF002308B00030300A128A1120250A12D2
:100428008A11003083120313A3000030A200273082
:10043800A1001030A0000B3084000A128A11002697
:100448000A128A11A4000A128A1100260A128A11B5
:10045800A5000A128A1100260A128A11A6000A1299
:100468008A1100260A128A11A7000A128A118B25FE
:100478000A128A11831203132008AD002108AE0066
:100488002208AF002308B00030300A128A11202554
:100498000A128A1138300A128A1120250A128A1182
:1004A80001300A128A1120250A128A11003083129B
:1004B8000313A3000030A2000130A100F430A00013
:1004C8000B3084000A128A1100260A128A11A4002D
:1004D8000A128A1100260A128A11A5000A128A1124
:1004E80000260A128A11A6000A128A1100260A1288
:1004F8008A11A7000A128A118B250A128A118312FF
:1005080003132008AD002108AE002208AF0023081D
:10051800B0000C300A128A1120250A128A110630FE
:100528000A128A1120250800831203132B083302AC
:10053800031DA02A2A0832020318A92AA801A90122
:100548003308AB003208AA00080028082904031958
:100558000A2B2A09B4002B09B500B40A0319B50AF5
:1005680032083407A00033080318330A3507A100FE
:10057800113084000A128A1100260A128A11A20078
:100588000A128A1100260A128A11A3000A128A1175
:1005980048260A128A11831203132108F50020083D
:1005A800F4002908F7002808F6000A128A11E12643
:1005B8000A128A11750883120313B9007408B80067
:1005C8002F08A1002E08A0003908A3003808A200AF
:1005D8000A128A1148260A128A1183120313210863
:1005E800AD002008AC002D083102031DFD2A2C089F
:1005F80030020318032B2D08B1002C08B000A80105
:10060800A9013308AB003208AA0008002A09B4007F
:100618002B09B500B40A0319B50A32083407B60025
:1006280033080318330A3507B7000F3084000A125D
:100638008A1100260A128A11A0000A128A110026BD
:100648000A128A11A100113084000A128A110026A8
:100658000A128A11A2000A128A1100260A128A11A5
:10066800A3000A128A1148260A128A118312031358
:1006780037082102031D422B360820020318080000
:10068800FF30A800FF30A900AC01AD013308AB0072
:100698003208AA000800FB308312031390000F30C1
:1006A8009700950164308316031392000430831277
:1006B80003139200FB3083160313870081017F30F8
:1006C800860090308B008801FC308900DF3085007F
:1006D8000A128A1102240A128A110A128A110224A1
:1006E8000A128A110A128A1102240A128A110A129B
:1006F8008A11D6210A128A1180300A128A112025FD
:100708000A128A1113300A128A1125200A128A1134
:10071800C0300A128A1120250A128A1124300A12BE
:100728008A1125200A128A11831203135808A1007E
:100738005708A0005408F5005308F4006430F60088
:100748000030F7000A128A11E1260A128A11750888
:1007580083120313A3007408A2000A128A11482600
:100768000A128A1183120313200895002830840086
:100778004F30C7000408C8000A30C9004708840081
:1007880083130008CA00C70A480884004A08800082
:10079800C80AC90BC22B0F08B3000E08B2000A1210
:1007A8008A1198220A128A114F3084008312031387
:1007B8002830CB000408CC000A30CD004B08840058
:1007C80083130008CE00CB0A4C0884004E08800032
:1007D800CC0ACD0BE22B5308C1005408C200C30158
:1007E800C4011508C700C8014708C5004808C60065
:1007F8000A128A11BA260A128A11982B003083121B
:100808000313A3000030A2000030A1000A30A000AA
:100818000B3084000A128A1100260A128A11A400D9
:100828000A128A1100260A128A11A5000A128A11D0
:1008380000260A128A11A6000A128A1100260A1234
:100848008A11A7000A128A118B250A128A118312AB
:1008580003132008A8002108A9002208AA002308D9
:10086800AB0083120313AC01AD012D08803AFF00E1
:1008780080307F02031D422C64302C0203180800CC
:100888008312031385160030A3000030A200033042
:10089800A100E830A0000B3084000A128A1100265B
:1008A8000A128A11A4000A128A1100260A128A1151
:1008B800A5000A128A1100260A128A11A6000A1235
:1008C8008A1100260A128A11A7000A128A118B259A
:1008D8000A128A11831203132008A8002108A9000C
:1008E8002208AA002308AB008312031385120030E4
:1008F800A3000030A2000730A100D030A0000B30C8
:1009080084000A128A1100260A128A11A4000A1207
:100918008A1100260A128A11A5000A128A110026D5
:100928000A128A11A6000A128A1100260A128A11CE
:10093800A7000A128A118B250A128A11831203133F
:100948002008A8002108A9002208AA002308AB0053
:10095800013083120313AC070318AD0A0030AD074A
:10096800392C83120313AC0009142C08880089144D
:100978000030A3000F30A2004230A1004030A00098
:100988000B3084000A128A1100260A128A11A40068
:100998000A128A1100260A128A11A5000A128A115F
:1009A80000260A128A11A6000A128A1100260A12C3
:1009B8008A11A7000A128A118B250A128A1183123A
:1009C80003132008A8002108A9002208AA00230868
:1009D800AB008312031389100030A3000030A2007B
:1009E8004E30A1002030A0000B3084000A128A117A
:1009F80000260A128A11A4000A128A1100260A1275
:100A08008A11A5000A128A1100260A128A11A60064
:100A18000A128A1100260A128A11A7000A128A11DC
:100A28008B25831203132008A8002108A900220897
:100A3800AA002308AB00080083120313AC000910B6
:100A48002C08880089140030A3000F30A20042301F
:100A5800A1004030A0000B3084000A128A11002641
:100A68000A128A11A4000A128A1100260A128A118F
:100A7800A5000A128A1100260A128A11A6000A1273
:100A88008A1100260A128A11A7000A128A118B25D8
:100A98000A128A11831203132008A8002108A9004A
:100AA8002208AA002308AB00831203138910003020
:100AB800A3000030A2004E30A1002030A0000B306F
:100AC80084000A128A1100260A128A11A4000A1246
:100AD8008A1100260A128A11A5000A128A11002614
:100AE8000A128A11A6000A128A1100260A128A110D
:100AF800A7000A128A118B25831203132008A80065
:100B08002108A9002208AA002308AB000800003029
:100B1800F8000030F7000030F6000030F5008312CE
:100B2800031323082204210420040319E22DF901E8
:100B3800F90AA31BAD2D0130F4000310A00DA10D7F
:100B4800A20DA30DF40BA12D0130F4007408F907D0
:100B58009D2D0130F4000310F50DF60DF70DF80D7D
:100B6800F40BAF2D23082702031DC42D22082602EB
:100B7800031DC42D21082502031DC42D20082402AD
:100B8800031CD52D2008A4022108031C210FA5024F
:100B98002208031C220FA6022308031C230FA70206
:100BA800751401300310A30CA20CA10CA00CFF3E7D
:100BB800031DD62D0130F902031DAD2D7808A300C1
:0E0BC8007708A2007608A1007508A0000800BA
:100C000006308A000408840A820700340134003464
:100C10000A34003464340034E834033410342734A4
:100C2000403442340F34003408340034003410347B
:100C30004C34413442342E3443344F344E345434E3
:100C40002E344434493447344934543441344C34D8
:100C50000034533465346A346134203442346534AA
:100C60006D342D34563469346E3464346F34213429
:100C70000034503457344D34203425343334643404
:100C8000253425340034253434346434203400349D
:100C900083120313A501A601200821040319812E44
:100CA000A701A70AA11B602E01300310A00DA10D02
:100CB000FF3E031D552E0130A4002408A707522E25
:100CC00001300310A50DA60DFF3E031D612E210866
:100CD0002302031D6D2E20082202031C762E2008FD
:100CE000A2022108031CA303A30225140130031050
:100CF000A10CA00CFF3E031D772E0130A702031D9F
:100D0000602E2608A1002508A00008008312031306
:100D1000280829040319B52EAD01AD0AA91B9C2E84
:100D200001300310A80DA90DFF3E031D912E0130C7
:100D3000AC002C08AD078E2E29082B02031DA22E15
:100D400028082A02031CAA2E2808AA022908031C24
:100D5000AB03AB0201300310A90CA80CFF3E031D2E
:100D6000AB2E0130AD02031D9C2E2B08A9002A08D2
:100D7000A8000800C0300A128A1120250A128A1120
:100D8000831203134408B1004308B0004208AF00C7
:100D90004108AE003E300A128A1125200A128A113B
:100DA000C8300A128A1120250A128A1183120313ED
:100DB0004608AF004508AE0034300A128A112520DB
:100DC0000800F801F901741CEB2E7608F8070318E7
:100DD000F90A7708F90701300310F60DF70DFF3E09
:100DE000031DEC2E01300310F50CF40CFF3E031D27
:100DF000F32E74087504031DE32E7908F5007808B6
:100E0000F4000800803086060130CF070318D00AAE
:100E10000030D0078B107308FF0072088A00710839
:100E20008400700E8300FE0E7E0E09007E088A008C
:100E30007F08820016270A128A118000840A04089B
:100E40007D0603190034FF0A0319FE0A1A2FF50064
:100E5000F4013A3075020318332F30307502031C49
:100E6000332FF401F40A740C0800FF34FF3400340B
:0E0E7000003400340034073400348834133466
:02400E003B3F36
:00000001FF
