:060000000A128A11122809
:10000800FE00030EF0000408F1000A08F200831253
:1000180003137F08F3000A128A11BC290A128A11F5
:10002800152883134C30FD000130FE00E130FF003D
:10003800423084000A128A11D42183010A128A11DB
:10004800E728831203132B083302031D2D282A08DF
:10005800320203183628A801A9013308AB00320878
:10006800AA0008002908803AFF0080307F02031D9B
:100078003F2801302802031CA028831203132A09F1
:10008800B4002B09B500B40A0319B50A32083407BD
:10009800A00033080318330A3507A1000330840091
:1000A8000A128A11EB210A128A11A2000A128A1175
:1000B800EB210A128A11A3000A128A115D210A1281
:1000C8008A11831203132108F5002008F400290877
:1000D800F7002808F6000A128A119B210A128A11D1
:1000E800750883120313B9007408B8002F08A1001B
:1000F8002E08A0003908A3003808A2000A128A11A5
:100108005D210A128A11831203132108AD00200809
:10011800AC002D083102031D93282C083002031867
:1001280099282D08B1002C08B000A801A9013308AE
:10013800AB003208AA000800831203132A09B4008E
:100148002B09B500B40A0319B50A32083407B600FA
:1001580033080318330A3507B700013084000A1240
:100168008A11EB210A128A11A0000A128A11EB21C6
:100178000A128A11A100033084000A128A11EB21A5
:100188000A128A11A2000A128A11EB210A128A1194
:10019800A3000A128A115D210A128A11831203131D
:1001A80037082102031DDA28360820020318080040
:1001B800FF30A800FF30A900AC01AD013308AB0047
:1001C8003208AA0008008312031390141016901620
:1001D8001014971517150F30BA003A0897059501AE
:1001E80064308316031392008312031312109210C3
:1001F80012158316031307118113061486130113AE
:100208000B168B1783124B08A1004A08A000470859
:10021800F5004608F4006430F6000030F7000A12D2
:100228008A119B210A128A11750883120313A300ED
:100238007408A2000A128A115D210A128A11831217
:10024800031320089500283084004230BA000408BF
:10025800BB000A30BC003A08840083130008BD00C4
:10026800BA0A3B0884003D088000BB0ABC0B2F2952
:100278000F08B3000E08B2000A128A1125200A12CC
:100288008A1142308400831203132830BE00040808
:10029800BF000A30C0003E08840083130008C10074
:1002A800BE0A3F08840041088000BF0AC00B4F29DE
:1002B800062983120313A501A601200821040319A6
:1002C8009629A701A70AA11B752901300310A00DC3
:1002D800A10DFF3E031D6A290130A4002408A707C9
:1002E800672901300310A50DA60DFF3E031D7629D1
:1002F80021082302031D822920082202031C8B29BE
:100308002008A2022108031CA303A302251401301C
:100318000310A10CA00CFF3E031D8C290130A7027D
:10032800031D75292608A1002508A0000800F8016A
:10033800F901741CA5297608F8070318F90A770843
:10034800F90701300310F60DF70DFF3E031DA6292E
:1003580001300310F50CF40CFF3E031DAD297408A1
:100368007504031D9D297908F5007808F400080034
:10037800803086060130C2070318C30A0030C3075D
:100388008B107308FF0072088A0071088400700ED1
:100398008300FE0E7E0E09007E088A007F08820018
:1003A800D0210A128A118000840A04087D060319E4
:1003B8000034FF0A0319FE0AD429FF34FF3400343D
:1003C80000340034003407340034883413340130E6
:1003D8008A000408840A8207003408340034003490
:0203E8001034CF
:02400E003B3F36
:00000001FF
