:0604AA000A128A11672A04
:1004B200FE00030EF0000408F1000A08F2008312A5
:1004C20003137F08F3000A128A113D2D0A128A11C2
:1004D2006A2A83136630FD000530FE007530FF0086
:1004E2005C3084000A128A11682583010A128A117B
:1004F200FF2B831203134B084102031D822A4A0871
:10050200400203188B2ACE01CF013908CD003808EA
:10051200CC00402B3B08803AFF0080307F02031D55
:10052200942A01303A02031C222B83120313CE01B8
:10053200CF013609C2003709C300C20A0319C30A30
:1005420040084207A00041080318410A4307A100DE
:10055200A201A3010030A7000030A6009230A5003E
:100562007C30A4000A128A1170230A128A118312A3
:1005720003132308B1002208B0002108AF002008AD
:10058200AE003A08B2003B08B3000030B31BFF30A4
:10059200B400B5000A128A11DB240A128A118312EE
:1005A20003133108C9003008C8002F08C7002E08FD
:1005B200C6003C08A0003D08A1000030A11BFF308E
:1005C200A200A3004908B1004808B0004708AF00E4
:1005D2004608AE000030B5000030B4000330B3006E
:1005E200E830B2000A128A11DB240A128A1183123D
:1005F20003133108A7003008A6002F08A5002E0813
:10060200A4000A128A1170230A128A118312031398
:100612002108CD002008CC003F08803AC2004D08D6
:10062200803A4202031D172B4C083E0203181F2B6F
:10063200831203134D08D3004C08D2008312031314
:10064200402B831203133609C2003709C300C20AC2
:100652000319C30A40084207C40041080318410AAB
:100662004307C500923045027D3003194402031C42
:10067200452BFF30CF00FF30CE00CC01CD01410829
:10068200CB004008CA005A2B4A3084003630C200E0
:100692000408C3000A30C40042088400831300081F
:1006A200C500C20A4308840045088000C30AC40B7F
:1006B2004D2B363084004A30C2000408C3000A3091
:1006C200C4004208840083130008C500C20A43081C
:1006D200840045088000C30AC40B622B0800831201
:1006E2000313A901A31F822BA009A109A209A3092F
:1006F200A00A0319A10A0319A20A0319A30AA9014C
:10070200A90AA71F932BA409A509A609A709A40A48
:100712000319A50A0319A60A0319A70A0130F4004E
:100722007408A9060030AD000030AC000030AB0008
:100732000030AA0023082204210420040319E82B14
:10074200A801A80AA31BB32B0130F4000310A00DCB
:10075200A10DA20DA30DF40BA72B0130F400740818
:10076200A807A32B0130F4000310AA0DAB0DAC0DAA
:10077200AD0DF40BB52B23082702031DCA2B22084B
:100782002602031DCA2B21082502031DCA2B20089D
:100792002402031CDB2B2008A4022108031C210FC6
:1007A200A5022208031C220FA6022308031C230F02
:1007B200A7022A1401300310A30CA20CA10CA00C56
:1007C200FF3E031DDC2B0130A802031DB32B2908B9
:1007D2000319F62BAA09AB09AC09AD09AA0A031938
:1007E200AB0A0319AC0A0319AD0A2D08A3002C08A1
:1007F200A2002B08A1002A08A000080083120313FC
:100802009010101690161014971517150F30D4006B
:1008120054089705950164308316031392008312DE
:10082200031312109210121583160313071181136A
:100832000614861301130B168B17363084005C30B6
:100842008312D4000408D5000A30D600540884006C
:1008520083130008D700D40A550884005708800083
:10086200D50AD60B272C0F08C1000E08C0000A12A9
:100872008A117A220A128A115C30840083120313CD
:100882003630D8000408D9000A30DA00580884004B
:1008920083130008DB00D80A590884005B08800033
:1008A200D90ADA0B472C0A30D4005408A9000A30BE
:1008B200F6000030F7005F08F5005E08F4000A1247
:1008C2008A111C250A128A11750883120313A300C8
:1008D2007408A2006508A1006408A0000A128A1127
:1008E20080240A128A118312031320080A128A1121
:1008F20051250A128A118312031395001E2C8312AA
:100902000313A601A11F8C2CA009A109A00A031997
:10091200A10AA601A60AA31F972CA209A309A20A4B
:100922000319A30A0130A4002408A606A701A801FE
:10093200200821040319CE2CA501A50AA11BAD2C68
:1009420001300310A00DA10DFF3E031DA22C0130AA
:10095200A4002408A5079F2C01300310A70DA80DA1
:10096200FF3E031DAE2C21082302031DBA2C2008D2
:100972002202031CC32C2008A2022108031CA30389
:10098200A302271401300310A10CA00CFF3E031D8B
:10099200C42C0130A502031DAD2C26080319D62C48
:1009A200A709A809A70A0319A80A2808A100270865
:1009B200A00008000030F9000030F8000030F70015
:1009C2000030F600831203132E1CFB2C3208F607AC
:1009D200330803110318013E031DF70734080311FE
:1009E2000318013E031DF807350803110318013EE1
:1009F200031DF9070130F5000310B20DB30DB40D5C
:100A0200B50DF50BFD2C01300310B10CB00CAF0C81
:100A1200AE0CFF3E031D052D310830042F042E04B9
:100A2200031DE32C7908B1007808B0007708AF0005
:100A32007608AE000800F801F901741C262D76082C
:100A4200F8070318F90A7708F90701300310F60DC1
:100A5200F70DFF3E031D272D01300310F50CF40C9A
:100A6200FF3E031D2E2D74087504031D1E2D7908EB
:100A7200F5007808F4000800803086060130E007AF
:100A82000318E10A0030E1078B107308FF007208B7
:100A92008A0071088400700E8300FE0E7E0E09002B
:100AA20083120313AC00AB012C1C5B2D2908AA0096
:100AB2002A08AB070310A90D0310AC0C2C08031D68
:100AC200552D2B0808007E088A007F0882006425C5
:100AD2000A128A118000840A04087D060319003470
:100AE200FF0A0319FE0A682D003400340034003472
:0C0AF200FF34FF34073400348834133420
:00000001FF
